{
  "_format": "hh-sol-artifact-1",
  "contractName": "Voting",
  "sourceName": "contracts/Voting.sol",
  "abi": [
    {
      "inputs": [],
      "stateMutability": "nonpayable",
      "type": "constructor"
    },
    {
      "anonymous": false,
      "inputs": [
        {
          "indexed": true,
          "internalType": "uint256",
          "name": "registerId",
          "type": "uint256"
        },
        {
          "indexed": false,
          "internalType": "string",
          "name": "name",
          "type": "string"
        },
        {
          "indexed": false,
          "internalType": "uint256",
          "name": "age",
          "type": "uint256"
        },
        {
          "indexed": false,
          "internalType": "address",
          "name": "candidateAddress",
          "type": "address"
        },
        {
          "indexed": false,
          "internalType": "uint256",
          "name": "voteCount",
          "type": "uint256"
        },
        {
          "indexed": false,
          "internalType": "string",
          "name": "ipfs",
          "type": "string"
        }
      ],
      "name": "candidateCreated",
      "type": "event"
    },
    {
      "anonymous": false,
      "inputs": [
        {
          "indexed": true,
          "internalType": "address",
          "name": "voterAddress",
          "type": "address"
        },
        {
          "indexed": true,
          "internalType": "uint256",
          "name": "candidateId",
          "type": "uint256"
        }
      ],
      "name": "voteCasted",
      "type": "event"
    },
    {
      "anonymous": false,
      "inputs": [
        {
          "indexed": true,
          "internalType": "uint256",
          "name": "registerId",
          "type": "uint256"
        },
        {
          "indexed": false,
          "internalType": "string",
          "name": "name",
          "type": "string"
        },
        {
          "indexed": false,
          "internalType": "uint256",
          "name": "age",
          "type": "uint256"
        },
        {
          "indexed": false,
          "internalType": "address",
          "name": "voterAddress",
          "type": "address"
        },
        {
          "indexed": false,
          "internalType": "bool",
          "name": "hasVoted",
          "type": "bool"
        },
        {
          "indexed": false,
          "internalType": "string",
          "name": "ipfs",
          "type": "string"
        }
      ],
      "name": "voterCreated",
      "type": "event"
    },
    {
      "anonymous": false,
      "inputs": [
        {
          "indexed": false,
          "internalType": "uint256",
          "name": "_votingStartTime",
          "type": "uint256"
        },
        {
          "indexed": false,
          "internalType": "uint256",
          "name": "_votingEndTime",
          "type": "uint256"
        },
        {
          "indexed": false,
          "internalType": "string",
          "name": "message",
          "type": "string"
        }
      ],
      "name": "votingStarted",
      "type": "event"
    },
    {
      "inputs": [
        {
          "internalType": "address",
          "name": "_candidateAddress",
          "type": "address"
        },
        {
          "internalType": "string",
          "name": "_name",
          "type": "string"
        },
        {
          "internalType": "uint256",
          "name": "_age",
          "type": "uint256"
        },
        {
          "internalType": "string",
          "name": "_ipfs",
          "type": "string"
        }
      ],
      "name": "addCandidate",
      "outputs": [],
      "stateMutability": "nonpayable",
      "type": "function"
    },
    {
      "inputs": [
        {
          "internalType": "address",
          "name": "_voterAddress",
          "type": "address"
        },
        {
          "internalType": "string",
          "name": "_name",
          "type": "string"
        },
        {
          "internalType": "uint256",
          "name": "_age",
          "type": "uint256"
        },
        {
          "internalType": "string",
          "name": "_ipfs",
          "type": "string"
        }
      ],
      "name": "addVoter",
      "outputs": [],
      "stateMutability": "nonpayable",
      "type": "function"
    },
    {
      "inputs": [
        {
          "internalType": "uint256",
          "name": "",
          "type": "uint256"
        }
      ],
      "name": "candidateAddress",
      "outputs": [
        {
          "internalType": "address",
          "name": "",
          "type": "address"
        }
      ],
      "stateMutability": "view",
      "type": "function"
    },
    {
      "inputs": [
        {
          "internalType": "address",
          "name": "_candidateAddress",
          "type": "address"
        },
        {
          "internalType": "uint256",
          "name": "_candidateId",
          "type": "uint256"
        }
      ],
      "name": "casteVote",
      "outputs": [],
      "stateMutability": "nonpayable",
      "type": "function"
    },
    {
      "inputs": [],
      "name": "getALLCandidate",
      "outputs": [
        {
          "internalType": "address[]",
          "name": "",
          "type": "address[]"
        }
      ],
      "stateMutability": "view",
      "type": "function"
    },
    {
      "inputs": [],
      "name": "getCandidatesLength",
      "outputs": [
        {
          "internalType": "uint256",
          "name": "",
          "type": "uint256"
        }
      ],
      "stateMutability": "view",
      "type": "function"
    },
    {
      "inputs": [],
      "name": "getListOfVotedVoters",
      "outputs": [
        {
          "internalType": "address[]",
          "name": "",
          "type": "address[]"
        }
      ],
      "stateMutability": "view",
      "type": "function"
    },
    {
      "inputs": [],
      "name": "getRemainingVotingTime",
      "outputs": [
        {
          "internalType": "uint256",
          "name": "",
          "type": "uint256"
        }
      ],
      "stateMutability": "view",
      "type": "function"
    },
    {
      "inputs": [
        {
          "internalType": "address",
          "name": "_candidateAddress",
          "type": "address"
        }
      ],
      "name": "getSingleCandidateData",
      "outputs": [
        {
          "internalType": "uint256",
          "name": "",
          "type": "uint256"
        },
        {
          "internalType": "string",
          "name": "",
          "type": "string"
        },
        {
          "internalType": "uint256",
          "name": "",
          "type": "uint256"
        },
        {
          "internalType": "address",
          "name": "",
          "type": "address"
        },
        {
          "internalType": "uint256",
          "name": "",
          "type": "uint256"
        }
      ],
      "stateMutability": "view",
      "type": "function"
    },
    {
      "inputs": [
        {
          "internalType": "address",
          "name": "_voterAddress",
          "type": "address"
        }
      ],
      "name": "getSingleVoterData",
      "outputs": [
        {
          "internalType": "uint256",
          "name": "",
          "type": "uint256"
        },
        {
          "internalType": "string",
          "name": "",
          "type": "string"
        },
        {
          "internalType": "uint256",
          "name": "",
          "type": "uint256"
        },
        {
          "internalType": "address",
          "name": "",
          "type": "address"
        },
        {
          "internalType": "bool",
          "name": "",
          "type": "bool"
        },
        {
          "internalType": "uint256",
          "name": "",
          "type": "uint256"
        },
        {
          "internalType": "uint256",
          "name": "",
          "type": "uint256"
        }
      ],
      "stateMutability": "view",
      "type": "function"
    },
    {
      "inputs": [],
      "name": "getVotersLength",
      "outputs": [
        {
          "internalType": "uint256",
          "name": "",
          "type": "uint256"
        }
      ],
      "stateMutability": "view",
      "type": "function"
    },
    {
      "inputs": [],
      "name": "getVotersList",
      "outputs": [
        {
          "internalType": "address[]",
          "name": "",
          "type": "address[]"
        }
      ],
      "stateMutability": "view",
      "type": "function"
    },
    {
      "inputs": [],
      "name": "isVotingStarted",
      "outputs": [
        {
          "internalType": "bool",
          "name": "",
          "type": "bool"
        }
      ],
      "stateMutability": "view",
      "type": "function"
    },
    {
      "inputs": [],
      "name": "owner",
      "outputs": [
        {
          "internalType": "address",
          "name": "",
          "type": "address"
        }
      ],
      "stateMutability": "view",
      "type": "function"
    },
    {
      "inputs": [],
      "name": "resetVotingContract",
      "outputs": [],
      "stateMutability": "nonpayable",
      "type": "function"
    },
    {
      "inputs": [
        {
          "internalType": "uint256",
          "name": "votingDurationInMinutes",
          "type": "uint256"
        }
      ],
      "name": "startVoting",
      "outputs": [],
      "stateMutability": "nonpayable",
      "type": "function"
    },
    {
      "inputs": [
        {
          "internalType": "uint256",
          "name": "",
          "type": "uint256"
        }
      ],
      "name": "votedVoters",
      "outputs": [
        {
          "internalType": "address",
          "name": "",
          "type": "address"
        }
      ],
      "stateMutability": "view",
      "type": "function"
    },
    {
      "inputs": [
        {
          "internalType": "uint256",
          "name": "",
          "type": "uint256"
        }
      ],
      "name": "votersAddress",
      "outputs": [
        {
          "internalType": "address",
          "name": "",
          "type": "address"
        }
      ],
      "stateMutability": "view",
      "type": "function"
    },
    {
      "inputs": [],
      "name": "votingEndTime",
      "outputs": [
        {
          "internalType": "uint256",
          "name": "",
          "type": "uint256"
        }
      ],
      "stateMutability": "view",
      "type": "function"
    },
    {
      "inputs": [],
      "name": "votingStartTime",
      "outputs": [
        {
          "internalType": "uint256",
          "name": "",
          "type": "uint256"
        }
      ],
      "stateMutability": "view",
      "type": "function"
    },
    {
      "inputs": [],
      "name": "winner",
      "outputs": [
        {
          "internalType": "uint256",
          "name": "",
          "type": "uint256"
        },
        {
          "components": [
            {
              "internalType": "uint256",
              "name": "registerId",
              "type": "uint256"
            },
            {
              "internalType": "string",
              "name": "name",
              "type": "string"
            },
            {
              "internalType": "uint256",
              "name": "age",
              "type": "uint256"
            },
            {
              "internalType": "address",
              "name": "candidateAddress",
              "type": "address"
            },
            {
              "internalType": "enum Voting.ApprovalStatus",
              "name": "status",
              "type": "uint8"
            },
            {
              "internalType": "uint256",
              "name": "voteCount",
              "type": "uint256"
            },
            {
              "internalType": "string",
              "name": "ipfs",
              "type": "string"
            }
          ],
          "internalType": "struct Voting.Candidate",
          "name": "",
          "type": "tuple"
        }
      ],
      "stateMutability": "nonpayable",
      "type": "function"
    },
    {
      "inputs": [
        {
          "internalType": "uint256",
          "name": "",
          "type": "uint256"
        }
      ],
      "name": "winnerAddress",
      "outputs": [
        {
          "internalType": "address",
          "name": "",
          "type": "address"
        }
      ],
      "stateMutability": "view",
      "type": "function"
    }
  ],
  "bytecode": "0x60806040523480156200001157600080fd5b50336000806101000a81548173ffffffffffffffffffffffffffffffffffffffff021916908373ffffffffffffffffffffffffffffffffffffffff1602179055506000600360006101000a81548160ff0219169083151502179055506200009760405180606001604052806024815260200162003b3f602491396200009d60201b60201c565b62000297565b6200013d81604051602401620000b4919062000244565b6040516020818303038152906040527f41304fac000000000000000000000000000000000000000000000000000000007bffffffffffffffffffffffffffffffffffffffffffffffffffffffff19166020820180517bffffffffffffffffffffffffffffffffffffffffffffffffffffffff83818316178352505050506200014060201b60201c565b50565b6200016681620001616200016960201b62002247176200018a60201b60201c565b60201c565b50565b60006a636f6e736f6c652e6c6f679050600080835160208501845afa505050565b6200019e60201b6200232917819050919050565b620001a862000268565b565b600081519050919050565b600082825260208201905092915050565b60005b83811015620001e6578082015181840152602081019050620001c9565b60008484015250505050565b6000601f19601f8301169050919050565b60006200021082620001aa565b6200021c8185620001b5565b93506200022e818560208601620001c6565b6200023981620001f2565b840191505092915050565b6000602082019050818103600083015262000260818462000203565b905092915050565b7f4e487b7100000000000000000000000000000000000000000000000000000000600052605160045260246000fd5b61389880620002a76000396000f3fe608060405234801561001057600080fd5b50600436106101425760003560e01c8063577ef5c0116100b8578063bc86f3851161007c578063bc86f3851461036d578063d20b77191461038b578063da9745ed146103a9578063de2237d3146103dd578063dfbf53ae146103fb578063ef17abcd1461041a57610142565b8063577ef5c0146102ad5780637831ffb3146102cb5780638da5cb5b146102fb578063a4ce5da214610319578063b24b31201461033757610142565b80632019a6081161010a5780632019a608146101c557806325709fa6146101e35780633a88251a146102015780633d2f5bda1461023157806343242daa1461024d5780635544c15c1461027d57610142565b806302caeb4114610147578063054323d0146101635780631859df651461016d5780631ea736e01461018b5780631f2919fe146101a9575b600080fd5b610161600480360381019061015c919061268e565b610436565b005b61016b610729565b005b610175610a48565b604051610182919061273c565b60405180910390f35b610193610a55565b6040516101a0919061273c565b60405180910390f35b6101c360048036038101906101be919061268e565b610a5b565b005b6101cd610da3565b6040516101da919061273c565b60405180910390f35b6101eb610da9565b6040516101f89190612772565b60405180910390f35b61021b6004803603810190610216919061278d565b610dbc565b60405161022891906127c9565b60405180910390f35b61024b6004803603810190610246919061278d565b610dfb565b005b6102676004803603810190610262919061278d565b610ff0565b60405161027491906127c9565b60405180910390f35b6102976004803603810190610292919061278d565b61102f565b6040516102a491906127c9565b60405180910390f35b6102b561106e565b6040516102c2919061273c565b60405180910390f35b6102e560048036038101906102e0919061278d565b6110d6565b6040516102f291906127c9565b60405180910390f35b610303611115565b60405161031091906127c9565b60405180910390f35b610321611139565b60405161032e91906128a2565b60405180910390f35b610351600480360381019061034c91906128c4565b6111c7565b6040516103649796959493929190612970565b60405180910390f35b610375611479565b60405161038291906128a2565b60405180910390f35b610393611507565b6040516103a091906128a2565b60405180910390f35b6103c360048036038101906103be91906128c4565b611595565b6040516103d49594939291906129e6565b60405180910390f35b6103e56117ab565b6040516103f2919061273c565b60405180910390f35b6104036117b8565b604051610411929190612bb3565b60405180910390f35b610434600480360381019061042f9190612be3565b611f1f565b005b60008054906101000a900473ffffffffffffffffffffffffffffffffffffffff1673ffffffffffffffffffffffffffffffffffffffff163373ffffffffffffffffffffffffffffffffffffffff16146104c4576040517f08c379a00000000000000000000000000000000000000000000000000000000081526004016104bb90612c95565b60405180910390fd5b61055484600780548060200260200160405190810160405280929190818152602001828054801561054a57602002820191906000526020600020905b8160009054906101000a900473ffffffffffffffffffffffffffffffffffffffff1673ffffffffffffffffffffffffffffffffffffffff1681526020019060010190808311610500575b5050505050612268565b15610594576040517f08c379a000000000000000000000000000000000000000000000000000000000815260040161058b90612d01565b60405180910390fd5b600560008154809291906105a790612d50565b91905055506000600860008673ffffffffffffffffffffffffffffffffffffffff1673ffffffffffffffffffffffffffffffffffffffff1681526020019081526020016000209050838160010190816106009190612fa4565b50828160020181905550600554816000018190555060008160040181905550848160030160006101000a81548173ffffffffffffffffffffffffffffffffffffffff021916908373ffffffffffffffffffffffffffffffffffffffff160217905550818160050190816106739190612fa4565b506007859080600181540180825580915050600190039060005260206000200160009091909190916101000a81548173ffffffffffffffffffffffffffffffffffffffff021916908373ffffffffffffffffffffffffffffffffffffffff16021790555080600001547ff97de1de7c79ab588b7765336ac90c7d0a82fa75da74538f8b8101f50bc93ee285858885600401548660050160405161071a9594939291906130fa565b60405180910390a25050505050565b60008054906101000a900473ffffffffffffffffffffffffffffffffffffffff1673ffffffffffffffffffffffffffffffffffffffff163373ffffffffffffffffffffffffffffffffffffffff16146107b7576040517f08c379a00000000000000000000000000000000000000000000000000000000081526004016107ae90612c95565b60405180910390fd5b60005b6007805490508110156108c75760086000600783815481106107df576107de61315b565b5b9060005260206000200160009054906101000a900473ffffffffffffffffffffffffffffffffffffffff1673ffffffffffffffffffffffffffffffffffffffff1673ffffffffffffffffffffffffffffffffffffffff16815260200190815260200160002060008082016000905560018201600061085d9190612333565b60028201600090556003820160006101000a81549073ffffffffffffffffffffffffffffffffffffffff02191690556003820160146101000a81549060ff021916905560048201600090556005820160006108b89190612333565b505080806001019150506107ba565b5060005b6009805490508110156109e057600a6000600983815481106108f0576108ef61315b565b5b9060005260206000200160009054906101000a900473ffffffffffffffffffffffffffffffffffffffff1673ffffffffffffffffffffffffffffffffffffffff1673ffffffffffffffffffffffffffffffffffffffff16815260200190815260200160002060008082016000905560018201600061096e9190612333565b60028201600090556003820160006101000a81549073ffffffffffffffffffffffffffffffffffffffff02191690556003820160146101000a81549060ff02191690556004820160006109c19190612333565b60058201600090556006820160009055505080806001019150506108cb565b50600760006109ef9190612373565b600960006109fd9190612373565b600b6000610a0b9190612373565b600060048190555060006005819055506000600360006101000a81548160ff02191690831515021790555060006001819055506000600281905550565b6000600780549050905090565b60025481565b60008054906101000a900473ffffffffffffffffffffffffffffffffffffffff1673ffffffffffffffffffffffffffffffffffffffff163373ffffffffffffffffffffffffffffffffffffffff1614610ae9576040517f08c379a0000000000000000000000000000000000000000000000000000000008152600401610ae090612c95565b60405180910390fd5b610b79846009805480602002602001604051908101604052809291908181526020018280548015610b6f57602002820191906000526020600020905b8160009054906101000a900473ffffffffffffffffffffffffffffffffffffffff1673ffffffffffffffffffffffffffffffffffffffff1681526020019060010190808311610b25575b5050505050612268565b15610bb9576040517f08c379a0000000000000000000000000000000000000000000000000000000008152600401610bb0906131d6565b60405180910390fd5b60046000815480929190610bcc90612d50565b91905055506000600a60008673ffffffffffffffffffffffffffffffffffffffff1673ffffffffffffffffffffffffffffffffffffffff16815260200190815260200160002090506001816006018190555060008160030160146101000a81548160ff02191690831515021790555083816001019081610c4c9190612fa4565b50828160020181905550848160030160006101000a81548173ffffffffffffffffffffffffffffffffffffffff021916908373ffffffffffffffffffffffffffffffffffffffff160217905550600454816000018190555081816004019081610cb59190612fa4565b506009859080600181540180825580915050600190039060005260206000200160009091909190916101000a81548173ffffffffffffffffffffffffffffffffffffffff021916908373ffffffffffffffffffffffffffffffffffffffff16021790555080600001547f712ee0287ff5040fd1902b718d223d698196825f1debaefa1d5ffa204dc663908260010183600201548460030160009054906101000a900473ffffffffffffffffffffffffffffffffffffffff168560030160149054906101000a900460ff1686600401604051610d949594939291906131f6565b60405180910390a25050505050565b60015481565b600360009054906101000a900460ff1681565b60078181548110610dcc57600080fd5b906000526020600020016000915054906101000a900473ffffffffffffffffffffffffffffffffffffffff1681565b60008054906101000a900473ffffffffffffffffffffffffffffffffffffffff1673ffffffffffffffffffffffffffffffffffffffff163373ffffffffffffffffffffffffffffffffffffffff1614610e89576040517f08c379a0000000000000000000000000000000000000000000000000000000008152600401610e8090612c95565b60405180910390fd5b60001515600360009054906101000a900460ff16151514610edf576040517f08c379a0000000000000000000000000000000000000000000000000000000008152600401610ed6906132a3565b60405180910390fd5b60026007805490501015610f28576040517f08c379a0000000000000000000000000000000000000000000000000000000008152600401610f1f90613335565b60405180910390fd5b600060098054905011610f70576040517f08c379a0000000000000000000000000000000000000000000000000000000008152600401610f67906133a1565b60405180910390fd5b6001600360006101000a81548160ff02191690831515021790555042600181905550603c81610f9f91906133c1565b42610faa9190613403565b6002819055507ff26ffbf8954319b8e40baf7708ea9d4188186297967babafc3c47b524710af99600154600254604051610fe5929190613483565b60405180910390a150565b6009818154811061100057600080fd5b906000526020600020016000915054906101000a900473ffffffffffffffffffffffffffffffffffffffff1681565b6006818154811061103f57600080fd5b906000526020600020016000915054906101000a900473ffffffffffffffffffffffffffffffffffffffff1681565b6000600154421015801561108457506002544211155b6110c3576040517f08c379a00000000000000000000000000000000000000000000000000000000081526004016110ba9061350b565b60405180910390fd5b426002546110d1919061352b565b905090565b600b81815481106110e657600080fd5b906000526020600020016000915054906101000a900473ffffffffffffffffffffffffffffffffffffffff1681565b60008054906101000a900473ffffffffffffffffffffffffffffffffffffffff1681565b606060078054806020026020016040519081016040528092919081815260200182805480156111bd57602002820191906000526020600020905b8160009054906101000a900473ffffffffffffffffffffffffffffffffffffffff1673ffffffffffffffffffffffffffffffffffffffff1681526020019060010190808311611173575b5050505050905090565b600060606000806000806000600a60008973ffffffffffffffffffffffffffffffffffffffff1673ffffffffffffffffffffffffffffffffffffffff16815260200190815260200160002060000154600a60008a73ffffffffffffffffffffffffffffffffffffffff1673ffffffffffffffffffffffffffffffffffffffff168152602001908152602001600020600101600a60008b73ffffffffffffffffffffffffffffffffffffffff1673ffffffffffffffffffffffffffffffffffffffff16815260200190815260200160002060020154600a60008c73ffffffffffffffffffffffffffffffffffffffff1673ffffffffffffffffffffffffffffffffffffffff16815260200190815260200160002060030160009054906101000a900473ffffffffffffffffffffffffffffffffffffffff16600a60008d73ffffffffffffffffffffffffffffffffffffffff1673ffffffffffffffffffffffffffffffffffffffff16815260200190815260200160002060030160149054906101000a900460ff16600a60008e73ffffffffffffffffffffffffffffffffffffffff1673ffffffffffffffffffffffffffffffffffffffff16815260200190815260200160002060060154600a60008f73ffffffffffffffffffffffffffffffffffffffff1673ffffffffffffffffffffffffffffffffffffffff168152602001908152602001600020600501548580546113e090612dc7565b80601f016020809104026020016040519081016040528092919081815260200182805461140c90612dc7565b80156114595780601f1061142e57610100808354040283529160200191611459565b820191906000526020600020905b81548152906001019060200180831161143c57829003601f168201915b505050505095509650965096509650965096509650919395979092949650565b606060098054806020026020016040519081016040528092919081815260200182805480156114fd57602002820191906000526020600020905b8160009054906101000a900473ffffffffffffffffffffffffffffffffffffffff1673ffffffffffffffffffffffffffffffffffffffff16815260200190600101908083116114b3575b5050505050905090565b6060600b80548060200260200160405190810160405280929190818152602001828054801561158b57602002820191906000526020600020905b8160009054906101000a900473ffffffffffffffffffffffffffffffffffffffff1673ffffffffffffffffffffffffffffffffffffffff1681526020019060010190808311611541575b5050505050905090565b600060606000806000600860008773ffffffffffffffffffffffffffffffffffffffff1673ffffffffffffffffffffffffffffffffffffffff16815260200190815260200160002060000154600860008873ffffffffffffffffffffffffffffffffffffffff1673ffffffffffffffffffffffffffffffffffffffff168152602001908152602001600020600101600860008973ffffffffffffffffffffffffffffffffffffffff1673ffffffffffffffffffffffffffffffffffffffff16815260200190815260200160002060020154600860008a73ffffffffffffffffffffffffffffffffffffffff1673ffffffffffffffffffffffffffffffffffffffff16815260200190815260200160002060030160009054906101000a900473ffffffffffffffffffffffffffffffffffffffff16600860008b73ffffffffffffffffffffffffffffffffffffffff1673ffffffffffffffffffffffffffffffffffffffff1681526020019081526020016000206004015483805461171890612dc7565b80601f016020809104026020016040519081016040528092919081815260200182805461174490612dc7565b80156117915780601f1061176657610100808354040283529160200191611791565b820191906000526020600020905b81548152906001019060200180831161177457829003601f168201915b505050505093509450945094509450945091939590929450565b6000600980549050905090565b60006117c2612394565b6117ca6122e9565b60006002541161180f576040517f08c379a0000000000000000000000000000000000000000000000000000000008152600401611806906135ab565b60405180910390fd5b60001515600360009054906101000a900460ff161515148015611833575060025442115b611872576040517f08c379a00000000000000000000000000000000000000000000000000000000081526004016118699061363d565b60405180910390fd5b6000805b600780549050811015611c6d576000600860006007848154811061189d5761189c61315b565b5b9060005260206000200160009054906101000a900473ffffffffffffffffffffffffffffffffffffffff1673ffffffffffffffffffffffffffffffffffffffff1673ffffffffffffffffffffffffffffffffffffffff1681526020019081526020016000206004015411801561199257508160086000600784815481106119275761192661315b565b5b9060005260206000200160009054906101000a900473ffffffffffffffffffffffffffffffffffffffff1673ffffffffffffffffffffffffffffffffffffffff1673ffffffffffffffffffffffffffffffffffffffff16815260200190815260200160002060040154115b15611aa95760086000600783815481106119af576119ae61315b565b5b9060005260206000200160009054906101000a900473ffffffffffffffffffffffffffffffffffffffff1673ffffffffffffffffffffffffffffffffffffffff1673ffffffffffffffffffffffffffffffffffffffff168152602001908152602001600020600401549150604051806020016040528060078381548110611a3957611a3861315b565b5b9060005260206000200160009054906101000a900473ffffffffffffffffffffffffffffffffffffffff1673ffffffffffffffffffffffffffffffffffffffff1673ffffffffffffffffffffffffffffffffffffffff168152506006906001611aa39291906123f9565b50611c60565b60006008600060078481548110611ac357611ac261315b565b5b9060005260206000200160009054906101000a900473ffffffffffffffffffffffffffffffffffffffff1673ffffffffffffffffffffffffffffffffffffffff1673ffffffffffffffffffffffffffffffffffffffff16815260200190815260200160002060040154118015611bb85750816008600060078481548110611b4d57611b4c61315b565b5b9060005260206000200160009054906101000a900473ffffffffffffffffffffffffffffffffffffffff1673ffffffffffffffffffffffffffffffffffffffff1673ffffffffffffffffffffffffffffffffffffffff16815260200190815260200160002060040154145b15611c5f57600660078281548110611bd357611bd261315b565b5b9060005260206000200160009054906101000a900473ffffffffffffffffffffffffffffffffffffffff169080600181540180825580915050600190039060005260206000200160009091909190916101000a81548173ffffffffffffffffffffffffffffffffffffffff021916908373ffffffffffffffffffffffffffffffffffffffff1602179055505b5b8080600101915050611876565b50600060068054905003611cb6576040517f08c379a0000000000000000000000000000000000000000000000000000000008152600401611cad906136a9565b60405180910390fd5b80600860006006600081548110611cd057611ccf61315b565b5b9060005260206000200160009054906101000a900473ffffffffffffffffffffffffffffffffffffffff1673ffffffffffffffffffffffffffffffffffffffff1673ffffffffffffffffffffffffffffffffffffffff168152602001908152602001600020806040518060e001604052908160008201548152602001600182018054611d5b90612dc7565b80601f0160208091040260200160405190810160405280929190818152602001828054611d8790612dc7565b8015611dd45780601f10611da957610100808354040283529160200191611dd4565b820191906000526020600020905b815481529060010190602001808311611db757829003601f168201915b50505050508152602001600282015481526020016003820160009054906101000a900473ffffffffffffffffffffffffffffffffffffffff1673ffffffffffffffffffffffffffffffffffffffff1673ffffffffffffffffffffffffffffffffffffffff1681526020016003820160149054906101000a900460ff166002811115611e6257611e61612a99565b5b6002811115611e7457611e73612a99565b5b815260200160048201548152602001600582018054611e9290612dc7565b80601f0160208091040260200160405190810160405280929190818152602001828054611ebe90612dc7565b8015611f0b5780601f10611ee057610100808354040283529160200191611f0b565b820191906000526020600020905b815481529060010190602001808311611eee57829003601f168201915b505050505081525050905092509250509091565b6001544210158015611f3357506002544211155b611f72576040517f08c379a0000000000000000000000000000000000000000000000000000000008152600401611f699061350b565b60405180910390fd5b612002826007805480602002602001604051908101604052809291908181526020018280548015611ff857602002820191906000526020600020905b8160009054906101000a900473ffffffffffffffffffffffffffffffffffffffff1673ffffffffffffffffffffffffffffffffffffffff1681526020019060010190808311611fae575b5050505050612268565b612041576040517f08c379a00000000000000000000000000000000000000000000000000000000081526004016120389061373b565b60405180910390fd5b6000600a60003373ffffffffffffffffffffffffffffffffffffffff1673ffffffffffffffffffffffffffffffffffffffff16815260200190815260200160002090508060030160149054906101000a900460ff16156120d6576040517f08c379a00000000000000000000000000000000000000000000000000000000081526004016120cd906137a7565b60405180910390fd5b600081600601540361211d576040517f08c379a000000000000000000000000000000000000000000000000000000000815260040161211490613813565b60405180910390fd5b60018160030160146101000a81548160ff021916908315150217905550818160050181905550600b339080600181540180825580915050600190039060005260206000200160009091909190916101000a81548173ffffffffffffffffffffffffffffffffffffffff021916908373ffffffffffffffffffffffffffffffffffffffff160217905550600860008473ffffffffffffffffffffffffffffffffffffffff1673ffffffffffffffffffffffffffffffffffffffff16815260200190815260200160002060040160008154809291906121f990612d50565b9190505550813373ffffffffffffffffffffffffffffffffffffffff167f906663c782b729d157b52ef6ec5eb35d71e674f813a7841b46e1415e7a9b48c760405160405180910390a3505050565b60006a636f6e736f6c652e6c6f679050600080835160208501845afa505050565b600080600090505b82518110156122dd578373ffffffffffffffffffffffffffffffffffffffff168382815181106122a3576122a261315b565b5b602002602001015173ffffffffffffffffffffffffffffffffffffffff16036122d05760019150506122e3565b8080600101915050612270565b50600090505b92915050565b600360009054906101000a900460ff168015612306575060025442115b15612327576000600360006101000a81548160ff0219169083151502179055505b565b612331613833565b565b50805461233f90612dc7565b6000825580601f106123515750612370565b601f01602090049060005260206000209081019061236f9190612483565b5b50565b50805460008255906000526020600020908101906123919190612483565b50565b6040518060e00160405280600081526020016060815260200160008152602001600073ffffffffffffffffffffffffffffffffffffffff168152602001600060028111156123e5576123e4612a99565b5b815260200160008152602001606081525090565b828054828255906000526020600020908101928215612472579160200282015b828111156124715782518260006101000a81548173ffffffffffffffffffffffffffffffffffffffff021916908373ffffffffffffffffffffffffffffffffffffffff16021790555091602001919060010190612419565b5b50905061247f9190612483565b5090565b5b8082111561249c576000816000905550600101612484565b5090565b6000604051905090565b600080fd5b600080fd5b600073ffffffffffffffffffffffffffffffffffffffff82169050919050565b60006124df826124b4565b9050919050565b6124ef816124d4565b81146124fa57600080fd5b50565b60008135905061250c816124e6565b92915050565b600080fd5b600080fd5b6000601f19601f8301169050919050565b7f4e487b7100000000000000000000000000000000000000000000000000000000600052604160045260246000fd5b6125658261251c565b810181811067ffffffffffffffff821117156125845761258361252d565b5b80604052505050565b60006125976124a0565b90506125a3828261255c565b919050565b600067ffffffffffffffff8211156125c3576125c261252d565b5b6125cc8261251c565b9050602081019050919050565b82818337600083830152505050565b60006125fb6125f6846125a8565b61258d565b90508281526020810184848401111561261757612616612517565b5b6126228482856125d9565b509392505050565b600082601f83011261263f5761263e612512565b5b813561264f8482602086016125e8565b91505092915050565b6000819050919050565b61266b81612658565b811461267657600080fd5b50565b60008135905061268881612662565b92915050565b600080600080608085870312156126a8576126a76124aa565b5b60006126b6878288016124fd565b945050602085013567ffffffffffffffff8111156126d7576126d66124af565b5b6126e38782880161262a565b93505060406126f487828801612679565b925050606085013567ffffffffffffffff811115612715576127146124af565b5b6127218782880161262a565b91505092959194509250565b61273681612658565b82525050565b6000602082019050612751600083018461272d565b92915050565b60008115159050919050565b61276c81612757565b82525050565b60006020820190506127876000830184612763565b92915050565b6000602082840312156127a3576127a26124aa565b5b60006127b184828501612679565b91505092915050565b6127c3816124d4565b82525050565b60006020820190506127de60008301846127ba565b92915050565b600081519050919050565b600082825260208201905092915050565b6000819050602082019050919050565b612819816124d4565b82525050565b600061282b8383612810565b60208301905092915050565b6000602082019050919050565b600061284f826127e4565b61285981856127ef565b935061286483612800565b8060005b8381101561289557815161287c888261281f565b975061288783612837565b925050600181019050612868565b5085935050505092915050565b600060208201905081810360008301526128bc8184612844565b905092915050565b6000602082840312156128da576128d96124aa565b5b60006128e8848285016124fd565b91505092915050565b600081519050919050565b600082825260208201905092915050565b60005b8381101561292b578082015181840152602081019050612910565b60008484015250505050565b6000612942826128f1565b61294c81856128fc565b935061295c81856020860161290d565b6129658161251c565b840191505092915050565b600060e082019050612985600083018a61272d565b81810360208301526129978189612937565b90506129a6604083018861272d565b6129b360608301876127ba565b6129c06080830186612763565b6129cd60a083018561272d565b6129da60c083018461272d565b98975050505050505050565b600060a0820190506129fb600083018861272d565b8181036020830152612a0d8187612937565b9050612a1c604083018661272d565b612a2960608301856127ba565b612a36608083018461272d565b9695505050505050565b612a4981612658565b82525050565b600082825260208201905092915050565b6000612a6b826128f1565b612a758185612a4f565b9350612a8581856020860161290d565b612a8e8161251c565b840191505092915050565b7f4e487b7100000000000000000000000000000000000000000000000000000000600052602160045260246000fd5b60038110612ad957612ad8612a99565b5b50565b6000819050612aea82612ac8565b919050565b6000612afa82612adc565b9050919050565b612b0a81612aef565b82525050565b600060e083016000830151612b286000860182612a40565b5060208301518482036020860152612b408282612a60565b9150506040830151612b556040860182612a40565b506060830151612b686060860182612810565b506080830151612b7b6080860182612b01565b5060a0830151612b8e60a0860182612a40565b5060c083015184820360c0860152612ba68282612a60565b9150508091505092915050565b6000604082019050612bc8600083018561272d565b8181036020830152612bda8184612b10565b90509392505050565b60008060408385031215612bfa57612bf96124aa565b5b6000612c08858286016124fd565b9250506020612c1985828601612679565b9150509250929050565b7f4f6e6c79204f776e65722f41646d696e2063616e2063616c6c2074686973206660008201527f756e6374696f6e00000000000000000000000000000000000000000000000000602082015250565b6000612c7f6027836128fc565b9150612c8a82612c23565b604082019050919050565b60006020820190508181036000830152612cae81612c72565b9050919050565b7f43616e64696461746520697320416c7265616479205265676973746572656400600082015250565b6000612ceb601f836128fc565b9150612cf682612cb5565b602082019050919050565b60006020820190508181036000830152612d1a81612cde565b9050919050565b7f4e487b7100000000000000000000000000000000000000000000000000000000600052601160045260246000fd5b6000612d5b82612658565b91507fffffffffffffffffffffffffffffffffffffffffffffffffffffffffffffffff8203612d8d57612d8c612d21565b5b600182019050919050565b7f4e487b7100000000000000000000000000000000000000000000000000000000600052602260045260246000fd5b60006002820490506001821680612ddf57607f821691505b602082108103612df257612df1612d98565b5b50919050565b60008190508160005260206000209050919050565b60006020601f8301049050919050565b600082821b905092915050565b600060088302612e5a7fffffffffffffffffffffffffffffffffffffffffffffffffffffffffffffffff82612e1d565b612e648683612e1d565b95508019841693508086168417925050509392505050565b6000819050919050565b6000612ea1612e9c612e9784612658565b612e7c565b612658565b9050919050565b6000819050919050565b612ebb83612e86565b612ecf612ec782612ea8565b848454612e2a565b825550505050565b600090565b612ee4612ed7565b612eef818484612eb2565b505050565b5b81811015612f1357612f08600082612edc565b600181019050612ef5565b5050565b601f821115612f5857612f2981612df8565b612f3284612e0d565b81016020851015612f41578190505b612f55612f4d85612e0d565b830182612ef4565b50505b505050565b600082821c905092915050565b6000612f7b60001984600802612f5d565b1980831691505092915050565b6000612f948383612f6a565b9150826002028217905092915050565b612fad826128f1565b67ffffffffffffffff811115612fc657612fc561252d565b5b612fd08254612dc7565b612fdb828285612f17565b600060209050601f83116001811461300e5760008415612ffc578287015190505b6130068582612f88565b86555061306e565b601f19841661301c86612df8565b60005b828110156130445784890151825560018201915060208501945060208101905061301f565b86831015613061578489015161305d601f891682612f6a565b8355505b6001600288020188555050505b505050505050565b6000815461308381612dc7565b61308d81866128fc565b945060018216600081146130a857600181146130be576130f1565b60ff1983168652811515602002860193506130f1565b6130c785612df8565b60005b838110156130e9578154818901526001820191506020810190506130ca565b808801955050505b50505092915050565b600060a08201905081810360008301526131148188612937565b9050613123602083018761272d565b61313060408301866127ba565b61313d606083018561272d565b818103608083015261314f8184613076565b90509695505050505050565b7f4e487b7100000000000000000000000000000000000000000000000000000000600052603260045260246000fd5b7f566f74657220697320416c726561647920526567697374657265640000000000600082015250565b60006131c0601b836128fc565b91506131cb8261318a565b602082019050919050565b600060208201905081810360008301526131ef816131b3565b9050919050565b600060a08201905081810360008301526132108188613076565b905061321f602083018761272d565b61322c60408301866127ba565b6132396060830185612763565b818103608083015261324b8184613076565b90509695505050505050565b7f566f74696e6720697320616c7265616479205374617274656400000000000000600082015250565b600061328d6019836128fc565b915061329882613257565b602082019050919050565b600060208201905081810360008301526132bc81613280565b9050919050565b7f52656769737465722043616e646964617465732053686f756c64206265206d6f60008201527f7265207468616e204f6e65000000000000000000000000000000000000000000602082015250565b600061331f602b836128fc565b915061332a826132c3565b604082019050919050565b6000602082019050818103600083015261334e81613312565b9050919050565b7f5468657265206973206e6f20766f74657220696e207468652073797374656d00600082015250565b600061338b601f836128fc565b915061339682613355565b602082019050919050565b600060208201905081810360008301526133ba8161337e565b9050919050565b60006133cc82612658565b91506133d783612658565b92508282026133e581612658565b915082820484148315176133fc576133fb612d21565b5b5092915050565b600061340e82612658565b915061341983612658565b925082820190508082111561343157613430612d21565b5b92915050565b7f566f74696e672068617320737563657366756c6c792073746172746564000000600082015250565b600061346d601d836128fc565b915061347882613437565b602082019050919050565b6000606082019050613498600083018561272d565b6134a5602083018461272d565b81810360408301526134b681613460565b90509392505050565b7f766f74696e67206973206e6f7420616374697665000000000000000000000000600082015250565b60006134f56014836128fc565b9150613500826134bf565b602082019050919050565b60006020820190508181036000830152613524816134e8565b9050919050565b600061353682612658565b915061354183612658565b925082820390508181111561355957613558612d21565b5b92915050565b7f566f74696e67206e6f7420537461727465640000000000000000000000000000600082015250565b60006135956012836128fc565b91506135a08261355f565b602082019050919050565b600060208201905081810360008301526135c481613588565b9050919050565b7f566f74696e6720697320696e2070726f67726573732c20506c6561736520776160008201527f697420746f20626520636f6d706c657465640000000000000000000000000000602082015250565b60006136276032836128fc565b9150613632826135cb565b604082019050919050565b600060208201905081810360008301526136568161361a565b9050919050565b7f4e6f2043616e6469646461746520676574206120566f74657300000000000000600082015250565b60006136936019836128fc565b915061369e8261365d565b602082019050919050565b600060208201905081810360008301526136c281613686565b9050919050565b7f73656c65637465642043616e646964617465206973206e6f7420417574686f7260008201527f61697a656420746f20566f746520000000000000000000000000000000000000602082015250565b6000613725602e836128fc565b9150613730826136c9565b604082019050919050565b6000602082019050818103600083015261375481613718565b9050919050565b7f596f75206861766520616c726561647920766f74656400000000000000000000600082015250565b60006137916016836128fc565b915061379c8261375b565b602082019050919050565b600060208201905081810360008301526137c081613784565b9050919050565b7f596f752068617665206e6f20726967687420746f20766f746500000000000000600082015250565b60006137fd6019836128fc565b9150613808826137c7565b602082019050919050565b6000602082019050818103600083015261382c816137f0565b9050919050565b7f4e487b7100000000000000000000000000000000000000000000000000000000600052605160045260246000fdfea2646970667358221220aaf59b9ce6193f61277f3a8328b169a2281c94bd5a28f502bc611a0726ecadca64736f6c6343000818003354686520436f6e74726163742069732073756363657366756c6c79206465706c6f796564",
  "linkReferences": {},
  "deployedLinkReferences": {}
}