{
  "_format": "hh-sol-artifact-1",
  "contractName": "Voting",
  "sourceName": "contracts/Voting.sol",
  "abi": [
    {
      "inputs": [],
      "stateMutability": "nonpayable",
      "type": "constructor"
    },
    {
      "anonymous": false,
      "inputs": [
        {
          "indexed": true,
          "internalType": "uint256",
          "name": "registerId",
          "type": "uint256"
        },
        {
          "indexed": false,
          "internalType": "string",
          "name": "name",
          "type": "string"
        },
        {
          "indexed": false,
          "internalType": "uint256",
          "name": "age",
          "type": "uint256"
        },
        {
          "indexed": false,
          "internalType": "address",
          "name": "candidateAddress",
          "type": "address"
        },
        {
          "indexed": false,
          "internalType": "uint256",
          "name": "voteCount",
          "type": "uint256"
        },
        {
          "indexed": false,
          "internalType": "string",
          "name": "ipfs",
          "type": "string"
        }
      ],
      "name": "candidateCreated",
      "type": "event"
    },
    {
      "anonymous": false,
      "inputs": [
        {
          "indexed": true,
          "internalType": "address",
          "name": "voterAddress",
          "type": "address"
        },
        {
          "indexed": true,
          "internalType": "uint256",
          "name": "candidateId",
          "type": "uint256"
        }
      ],
      "name": "voteCasted",
      "type": "event"
    },
    {
      "anonymous": false,
      "inputs": [
        {
          "indexed": true,
          "internalType": "uint256",
          "name": "registerId",
          "type": "uint256"
        },
        {
          "indexed": false,
          "internalType": "string",
          "name": "name",
          "type": "string"
        },
        {
          "indexed": false,
          "internalType": "uint256",
          "name": "age",
          "type": "uint256"
        },
        {
          "indexed": false,
          "internalType": "address",
          "name": "voterAddress",
          "type": "address"
        },
        {
          "indexed": false,
          "internalType": "bool",
          "name": "hasVoted",
          "type": "bool"
        },
        {
          "indexed": false,
          "internalType": "string",
          "name": "ipfs",
          "type": "string"
        }
      ],
      "name": "voterCreated",
      "type": "event"
    },
    {
      "anonymous": false,
      "inputs": [
        {
          "indexed": false,
          "internalType": "uint256",
          "name": "_votingStartTime",
          "type": "uint256"
        },
        {
          "indexed": false,
          "internalType": "uint256",
          "name": "_votingEndTime",
          "type": "uint256"
        },
        {
          "indexed": false,
          "internalType": "string",
          "name": "message",
          "type": "string"
        }
      ],
      "name": "votingStarted",
      "type": "event"
    },
    {
      "inputs": [
        {
          "internalType": "address",
          "name": "_candidateAddress",
          "type": "address"
        },
        {
          "internalType": "string",
          "name": "_name",
          "type": "string"
        },
        {
          "internalType": "uint256",
          "name": "_age",
          "type": "uint256"
        },
        {
          "internalType": "string",
          "name": "_ipfs",
          "type": "string"
        }
      ],
      "name": "addCandidate",
      "outputs": [],
      "stateMutability": "nonpayable",
      "type": "function"
    },
    {
      "inputs": [
        {
          "internalType": "address",
          "name": "_voterAddress",
          "type": "address"
        },
        {
          "internalType": "string",
          "name": "_name",
          "type": "string"
        },
        {
          "internalType": "uint256",
          "name": "_age",
          "type": "uint256"
        },
        {
          "internalType": "string",
          "name": "_ipfs",
          "type": "string"
        }
      ],
      "name": "addVoter",
      "outputs": [],
      "stateMutability": "nonpayable",
      "type": "function"
    },
    {
      "inputs": [
        {
          "internalType": "uint256",
          "name": "",
          "type": "uint256"
        }
      ],
      "name": "candidateAddress",
      "outputs": [
        {
          "internalType": "address",
          "name": "",
          "type": "address"
        }
      ],
      "stateMutability": "view",
      "type": "function"
    },
    {
      "inputs": [
        {
          "internalType": "address",
          "name": "_candidateAddress",
          "type": "address"
        },
        {
          "internalType": "uint256",
          "name": "_candidateId",
          "type": "uint256"
        }
      ],
      "name": "castVote",
      "outputs": [],
      "stateMutability": "nonpayable",
      "type": "function"
    },
    {
      "inputs": [],
      "name": "getAllCandidates",
      "outputs": [
        {
          "components": [
            {
              "internalType": "uint256",
              "name": "registerId",
              "type": "uint256"
            },
            {
              "internalType": "string",
              "name": "name",
              "type": "string"
            },
            {
              "internalType": "uint256",
              "name": "age",
              "type": "uint256"
            },
            {
              "internalType": "address",
              "name": "candidateAddress",
              "type": "address"
            },
            {
              "internalType": "uint256",
              "name": "voteCount",
              "type": "uint256"
            },
            {
              "internalType": "string",
              "name": "ipfs",
              "type": "string"
            }
          ],
          "internalType": "struct Voting.Candidate[]",
          "name": "",
          "type": "tuple[]"
        }
      ],
      "stateMutability": "view",
      "type": "function"
    },
    {
      "inputs": [],
      "name": "getAllVoters",
      "outputs": [
        {
          "components": [
            {
              "internalType": "uint256",
              "name": "registerId",
              "type": "uint256"
            },
            {
              "internalType": "string",
              "name": "name",
              "type": "string"
            },
            {
              "internalType": "uint256",
              "name": "age",
              "type": "uint256"
            },
            {
              "internalType": "address",
              "name": "voterAddress",
              "type": "address"
            },
            {
              "internalType": "bool",
              "name": "hasVoted",
              "type": "bool"
            },
            {
              "internalType": "string",
              "name": "ipfs",
              "type": "string"
            },
            {
              "internalType": "uint256",
              "name": "votedFor",
              "type": "uint256"
            },
            {
              "internalType": "uint256",
              "name": "voterAllowed",
              "type": "uint256"
            }
          ],
          "internalType": "struct Voting.Voter[]",
          "name": "",
          "type": "tuple[]"
        }
      ],
      "stateMutability": "view",
      "type": "function"
    },
    {
      "inputs": [],
      "name": "getCandidatesLength",
      "outputs": [
        {
          "internalType": "uint256",
          "name": "",
          "type": "uint256"
        }
      ],
      "stateMutability": "view",
      "type": "function"
    },
    {
      "inputs": [],
      "name": "getListOfVotedVoters",
      "outputs": [
        {
          "internalType": "address[]",
          "name": "",
          "type": "address[]"
        }
      ],
      "stateMutability": "view",
      "type": "function"
    },
    {
      "inputs": [],
      "name": "getRemainingVotingTime",
      "outputs": [
        {
          "internalType": "uint256",
          "name": "",
          "type": "uint256"
        }
      ],
      "stateMutability": "view",
      "type": "function"
    },
    {
      "inputs": [
        {
          "internalType": "address",
          "name": "_candidateAddress",
          "type": "address"
        }
      ],
      "name": "getSingleCandidateData",
      "outputs": [
        {
          "internalType": "uint256",
          "name": "",
          "type": "uint256"
        },
        {
          "internalType": "string",
          "name": "",
          "type": "string"
        },
        {
          "internalType": "uint256",
          "name": "",
          "type": "uint256"
        },
        {
          "internalType": "address",
          "name": "",
          "type": "address"
        },
        {
          "internalType": "uint256",
          "name": "",
          "type": "uint256"
        },
        {
          "internalType": "string",
          "name": "",
          "type": "string"
        }
      ],
      "stateMutability": "view",
      "type": "function"
    },
    {
      "inputs": [
        {
          "internalType": "address",
          "name": "_voterAddress",
          "type": "address"
        }
      ],
      "name": "getSingleVoter",
      "outputs": [
        {
          "components": [
            {
              "internalType": "uint256",
              "name": "registerId",
              "type": "uint256"
            },
            {
              "internalType": "string",
              "name": "name",
              "type": "string"
            },
            {
              "internalType": "uint256",
              "name": "age",
              "type": "uint256"
            },
            {
              "internalType": "address",
              "name": "voterAddress",
              "type": "address"
            },
            {
              "internalType": "bool",
              "name": "hasVoted",
              "type": "bool"
            },
            {
              "internalType": "string",
              "name": "ipfs",
              "type": "string"
            },
            {
              "internalType": "uint256",
              "name": "votedFor",
              "type": "uint256"
            },
            {
              "internalType": "uint256",
              "name": "voterAllowed",
              "type": "uint256"
            }
          ],
          "internalType": "struct Voting.Voter",
          "name": "",
          "type": "tuple"
        }
      ],
      "stateMutability": "view",
      "type": "function"
    },
    {
      "inputs": [],
      "name": "getVotersLength",
      "outputs": [
        {
          "internalType": "uint256",
          "name": "",
          "type": "uint256"
        }
      ],
      "stateMutability": "view",
      "type": "function"
    },
    {
      "inputs": [],
      "name": "getWinner",
      "outputs": [
        {
          "components": [
            {
              "internalType": "uint256",
              "name": "registerId",
              "type": "uint256"
            },
            {
              "internalType": "string",
              "name": "name",
              "type": "string"
            },
            {
              "internalType": "uint256",
              "name": "age",
              "type": "uint256"
            },
            {
              "internalType": "address",
              "name": "candidateAddress",
              "type": "address"
            },
            {
              "internalType": "uint256",
              "name": "voteCount",
              "type": "uint256"
            },
            {
              "internalType": "string",
              "name": "ipfs",
              "type": "string"
            }
          ],
          "internalType": "struct Voting.Candidate",
          "name": "",
          "type": "tuple"
        }
      ],
      "stateMutability": "view",
      "type": "function"
    },
    {
      "inputs": [],
      "name": "isVotingStarted",
      "outputs": [
        {
          "internalType": "bool",
          "name": "",
          "type": "bool"
        }
      ],
      "stateMutability": "view",
      "type": "function"
    },
    {
      "inputs": [],
      "name": "owner",
      "outputs": [
        {
          "internalType": "address",
          "name": "",
          "type": "address"
        }
      ],
      "stateMutability": "view",
      "type": "function"
    },
    {
      "inputs": [],
      "name": "resetVotingContract",
      "outputs": [],
      "stateMutability": "nonpayable",
      "type": "function"
    },
    {
      "inputs": [
        {
          "internalType": "uint256",
          "name": "votingDurationInMinutes",
          "type": "uint256"
        }
      ],
      "name": "startVoting",
      "outputs": [],
      "stateMutability": "nonpayable",
      "type": "function"
    },
    {
      "inputs": [],
      "name": "stopVoting",
      "outputs": [],
      "stateMutability": "nonpayable",
      "type": "function"
    },
    {
      "inputs": [
        {
          "internalType": "uint256",
          "name": "",
          "type": "uint256"
        }
      ],
      "name": "votersAddress",
      "outputs": [
        {
          "internalType": "address",
          "name": "",
          "type": "address"
        }
      ],
      "stateMutability": "view",
      "type": "function"
    },
    {
      "inputs": [],
      "name": "votingEndTime",
      "outputs": [
        {
          "internalType": "uint256",
          "name": "",
          "type": "uint256"
        }
      ],
      "stateMutability": "view",
      "type": "function"
    },
    {
      "inputs": [],
      "name": "votingStartTime",
      "outputs": [
        {
          "internalType": "uint256",
          "name": "",
          "type": "uint256"
        }
      ],
      "stateMutability": "view",
      "type": "function"
    },
    {
      "inputs": [
        {
          "internalType": "uint256",
          "name": "",
          "type": "uint256"
        }
      ],
      "name": "winnerAddress",
      "outputs": [
        {
          "internalType": "address",
          "name": "",
          "type": "address"
        }
      ],
      "stateMutability": "view",
      "type": "function"
    }
  ],
  "bytecode": "0x60806040523480156200001157600080fd5b50336000806101000a81548173ffffffffffffffffffffffffffffffffffffffff021916908373ffffffffffffffffffffffffffffffffffffffff1602179055506000600360006101000a81548160ff0219169083151502179055506200009760405180606001604052806024815260200162003fea602491396200009d60201b60201c565b62000297565b6200013d81604051602401620000b4919062000244565b6040516020818303038152906040527f41304fac000000000000000000000000000000000000000000000000000000007bffffffffffffffffffffffffffffffffffffffffffffffffffffffff19166020820180517bffffffffffffffffffffffffffffffffffffffffffffffffffffffff83818316178352505050506200014060201b60201c565b50565b6200016681620001616200016960201b620024e6176200018a60201b60201c565b60201c565b50565b60006a636f6e736f6c652e6c6f679050600080835160208501845afa505050565b6200019e60201b6200258817819050919050565b620001a862000268565b565b600081519050919050565b600082825260208201905092915050565b60005b83811015620001e6578082015181840152602081019050620001c9565b60008484015250505050565b6000601f19601f8301169050919050565b60006200021082620001aa565b6200021c8185620001b5565b93506200022e818560208601620001c6565b6200023981620001f2565b840191505092915050565b6000602082019050818103600083015262000260818462000203565b905092915050565b7f4e487b7100000000000000000000000000000000000000000000000000000000600052605160045260246000fd5b613d4380620002a76000396000f3fe608060405234801561001057600080fd5b50600436106101425760003560e01c806343242daa116100b8578063aa1d46801161007c578063aa1d468014610343578063d20b771914610373578063da9745ed14610391578063de2237d3146103c6578063fab2f86b146103e4578063ff91bb45146103ee57610142565b806343242daa146102895780635544c15c146102b9578063577ef5c0146102e95780638da5cb5b146103075780638e7ea5b21461032557610142565b80632019a6081161010a5780632019a608146101c557806325709fa6146101e35780632e6997fe1461020157806335bbe70e1461021f5780633a88251a1461023d5780633d2f5bda1461026d57610142565b806302caeb4114610147578063054323d0146101635780631859df651461016d5780631ea736e01461018b5780631f2919fe146101a9575b600080fd5b610161600480360381019061015c91906128a7565b61040a565b005b61016b610753565b005b610175610a5e565b6040516101829190612955565b60405180910390f35b610193610a6b565b6040516101a09190612955565b60405180910390f35b6101c360048036038101906101be91906128a7565b610a71565b005b6101cd610e0f565b6040516101da9190612955565b60405180910390f35b6101eb610e15565b6040516101f8919061298b565b60405180910390f35b610209610e28565b6040516102169190612b95565b60405180910390f35b6102276110ea565b6040516102349190612d3f565b60405180910390f35b61025760048036038101906102529190612d61565b611460565b6040516102649190612d9d565b60405180910390f35b61028760048036038101906102829190612d61565b61149f565b005b6102a3600480360381019061029e9190612d61565b611694565b6040516102b09190612d9d565b60405180910390f35b6102d360048036038101906102ce9190612d61565b6116d3565b6040516102e09190612d9d565b60405180910390f35b6102f1611712565b6040516102fe9190612955565b60405180910390f35b61030f61177a565b60405161031c9190612d9d565b60405180910390f35b61032d61179e565b60405161033a9190612e48565b60405180910390f35b61035d60048036038101906103589190612e6a565b611a55565b60405161036a9190612f4e565b60405180910390f35b61037b611cfa565b604051610388919061301f565b60405180910390f35b6103ab60048036038101906103a69190612e6a565b611e16565b6040516103bd9695949392919061308b565b60405180910390f35b6103ce6120fe565b6040516103db9190612955565b60405180910390f35b6103ec61210b565b005b610408600480360381019061040391906130fa565b6121be565b005b60008054906101000a900473ffffffffffffffffffffffffffffffffffffffff1673ffffffffffffffffffffffffffffffffffffffff163373ffffffffffffffffffffffffffffffffffffffff1614610498576040517f08c379a000000000000000000000000000000000000000000000000000000000815260040161048f906131ac565b60405180910390fd5b60001515600360009054906101000a900460ff161515146104ee576040517f08c379a00000000000000000000000000000000000000000000000000000000081526004016104e590613218565b60405180910390fd5b61057e84600780548060200260200160405190810160405280929190818152602001828054801561057457602002820191906000526020600020905b8160009054906101000a900473ffffffffffffffffffffffffffffffffffffffff1673ffffffffffffffffffffffffffffffffffffffff168152602001906001019080831161052a575b5050505050612507565b156105be576040517f08c379a00000000000000000000000000000000000000000000000000000000081526004016105b590613284565b60405180910390fd5b600560008154809291906105d1906132d3565b91905055506000600860008673ffffffffffffffffffffffffffffffffffffffff1673ffffffffffffffffffffffffffffffffffffffff16815260200190815260200160002090508381600101908161062a9190613527565b50828160020181905550600554816000018190555060008160040181905550848160030160006101000a81548173ffffffffffffffffffffffffffffffffffffffff021916908373ffffffffffffffffffffffffffffffffffffffff1602179055508181600501908161069d9190613527565b506007859080600181540180825580915050600190039060005260206000200160009091909190916101000a81548173ffffffffffffffffffffffffffffffffffffffff021916908373ffffffffffffffffffffffffffffffffffffffff16021790555080600001547ff97de1de7c79ab588b7765336ac90c7d0a82fa75da74538f8b8101f50bc93ee285858885600401548660050160405161074495949392919061367d565b60405180910390a25050505050565b60008054906101000a900473ffffffffffffffffffffffffffffffffffffffff1673ffffffffffffffffffffffffffffffffffffffff163373ffffffffffffffffffffffffffffffffffffffff16146107e1576040517f08c379a00000000000000000000000000000000000000000000000000000000081526004016107d8906131ac565b60405180910390fd5b60005b6007805490508110156108dd576008600060078381548110610809576108086136de565b5b9060005260206000200160009054906101000a900473ffffffffffffffffffffffffffffffffffffffff1673ffffffffffffffffffffffffffffffffffffffff1673ffffffffffffffffffffffffffffffffffffffff1681526020019081526020016000206000808201600090556001820160006108879190612592565b60028201600090556003820160006101000a81549073ffffffffffffffffffffffffffffffffffffffff021916905560048201600090556005820160006108ce9190612592565b505080806001019150506107e4565b5060005b6009805490508110156109f657600a600060098381548110610906576109056136de565b5b9060005260206000200160009054906101000a900473ffffffffffffffffffffffffffffffffffffffff1673ffffffffffffffffffffffffffffffffffffffff1673ffffffffffffffffffffffffffffffffffffffff1681526020019081526020016000206000808201600090556001820160006109849190612592565b60028201600090556003820160006101000a81549073ffffffffffffffffffffffffffffffffffffffff02191690556003820160146101000a81549060ff02191690556004820160006109d79190612592565b60058201600090556006820160009055505080806001019150506108e1565b5060076000610a0591906125d2565b60096000610a1391906125d2565b600b6000610a2191906125d2565b600060048190555060006005819055506000600360006101000a81548160ff02191690831515021790555060006001819055506000600281905550565b6000600780549050905090565b60025481565b60008054906101000a900473ffffffffffffffffffffffffffffffffffffffff1673ffffffffffffffffffffffffffffffffffffffff163373ffffffffffffffffffffffffffffffffffffffff1614610aff576040517f08c379a0000000000000000000000000000000000000000000000000000000008152600401610af6906131ac565b60405180910390fd5b60001515600360009054906101000a900460ff16151514610b55576040517f08c379a0000000000000000000000000000000000000000000000000000000008152600401610b4c90613218565b60405180910390fd5b610be5846009805480602002602001604051908101604052809291908181526020018280548015610bdb57602002820191906000526020600020905b8160009054906101000a900473ffffffffffffffffffffffffffffffffffffffff1673ffffffffffffffffffffffffffffffffffffffff1681526020019060010190808311610b91575b5050505050612507565b15610c25576040517f08c379a0000000000000000000000000000000000000000000000000000000008152600401610c1c90613759565b60405180910390fd5b60046000815480929190610c38906132d3565b91905055506000600a60008673ffffffffffffffffffffffffffffffffffffffff1673ffffffffffffffffffffffffffffffffffffffff16815260200190815260200160002090506001816006018190555060008160030160146101000a81548160ff02191690831515021790555083816001019081610cb89190613527565b50828160020181905550848160030160006101000a81548173ffffffffffffffffffffffffffffffffffffffff021916908373ffffffffffffffffffffffffffffffffffffffff160217905550600454816000018190555081816004019081610d219190613527565b506009859080600181540180825580915050600190039060005260206000200160009091909190916101000a81548173ffffffffffffffffffffffffffffffffffffffff021916908373ffffffffffffffffffffffffffffffffffffffff16021790555080600001547f712ee0287ff5040fd1902b718d223d698196825f1debaefa1d5ffa204dc663908260010183600201548460030160009054906101000a900473ffffffffffffffffffffffffffffffffffffffff168560030160149054906101000a900460ff1686600401604051610e00959493929190613779565b60405180910390a25050505050565b60015481565b600360009054906101000a900460ff1681565b6060600060078054905067ffffffffffffffff811115610e4b57610e4a612746565b5b604051908082528060200260200182016040528015610e8457816020015b610e716125f3565b815260200190600190039081610e695790505b50905060005b6007805490508110156110e2576008600060078381548110610eaf57610eae6136de565b5b9060005260206000200160009054906101000a900473ffffffffffffffffffffffffffffffffffffffff1673ffffffffffffffffffffffffffffffffffffffff1673ffffffffffffffffffffffffffffffffffffffff1681526020019081526020016000206040518060c001604052908160008201548152602001600182018054610f399061334a565b80601f0160208091040260200160405190810160405280929190818152602001828054610f659061334a565b8015610fb25780601f10610f8757610100808354040283529160200191610fb2565b820191906000526020600020905b815481529060010190602001808311610f9557829003601f168201915b50505050508152602001600282015481526020016003820160009054906101000a900473ffffffffffffffffffffffffffffffffffffffff1673ffffffffffffffffffffffffffffffffffffffff1673ffffffffffffffffffffffffffffffffffffffff168152602001600482015481526020016005820180546110359061334a565b80601f01602080910402602001604051908101604052809291908181526020018280546110619061334a565b80156110ae5780601f10611083576101008083540402835291602001916110ae565b820191906000526020600020905b81548152906001019060200180831161109157829003601f168201915b5050505050815250508282815181106110ca576110c96136de565b5b60200260200101819052508080600101915050610e8a565b508091505090565b606060008054906101000a900473ffffffffffffffffffffffffffffffffffffffff1673ffffffffffffffffffffffffffffffffffffffff163373ffffffffffffffffffffffffffffffffffffffff161461117a576040517f08c379a0000000000000000000000000000000000000000000000000000000008152600401611171906131ac565b60405180910390fd5b600060098054905067ffffffffffffffff81111561119b5761119a612746565b5b6040519080825280602002602001820160405280156111d457816020015b6111c161263f565b8152602001906001900390816111b95790505b50905060005b60098054905081101561145857600a6000600983815481106111ff576111fe6136de565b5b9060005260206000200160009054906101000a900473ffffffffffffffffffffffffffffffffffffffff1673ffffffffffffffffffffffffffffffffffffffff1673ffffffffffffffffffffffffffffffffffffffff168152602001908152602001600020604051806101000160405290816000820154815260200160018201805461128a9061334a565b80601f01602080910402602001604051908101604052809291908181526020018280546112b69061334a565b80156113035780601f106112d857610100808354040283529160200191611303565b820191906000526020600020905b8154815290600101906020018083116112e657829003601f168201915b50505050508152602001600282015481526020016003820160009054906101000a900473ffffffffffffffffffffffffffffffffffffffff1673ffffffffffffffffffffffffffffffffffffffff1673ffffffffffffffffffffffffffffffffffffffff1681526020016003820160149054906101000a900460ff161515151581526020016004820180546113979061334a565b80601f01602080910402602001604051908101604052809291908181526020018280546113c39061334a565b80156114105780601f106113e557610100808354040283529160200191611410565b820191906000526020600020905b8154815290600101906020018083116113f357829003601f168201915b50505050508152602001600582015481526020016006820154815250508282815181106114405761143f6136de565b5b602002602001018190525080806001019150506111da565b508091505090565b6007818154811061147057600080fd5b906000526020600020016000915054906101000a900473ffffffffffffffffffffffffffffffffffffffff1681565b60008054906101000a900473ffffffffffffffffffffffffffffffffffffffff1673ffffffffffffffffffffffffffffffffffffffff163373ffffffffffffffffffffffffffffffffffffffff161461152d576040517f08c379a0000000000000000000000000000000000000000000000000000000008152600401611524906131ac565b60405180910390fd5b60001515600360009054906101000a900460ff16151514611583576040517f08c379a000000000000000000000000000000000000000000000000000000000815260040161157a90613826565b60405180910390fd5b600260078054905010156115cc576040517f08c379a00000000000000000000000000000000000000000000000000000000081526004016115c3906138b8565b60405180910390fd5b600060098054905011611614576040517f08c379a000000000000000000000000000000000000000000000000000000000815260040161160b90613924565b60405180910390fd5b6001600360006101000a81548160ff02191690831515021790555042600181905550603c816116439190613944565b4261164e9190613986565b6002819055507ff26ffbf8954319b8e40baf7708ea9d4188186297967babafc3c47b524710af99600154600254604051611689929190613a06565b60405180910390a150565b600981815481106116a457600080fd5b906000526020600020016000915054906101000a900473ffffffffffffffffffffffffffffffffffffffff1681565b600681815481106116e357600080fd5b906000526020600020016000915054906101000a900473ffffffffffffffffffffffffffffffffffffffff1681565b6000600154421015801561172857506002544211155b611767576040517f08c379a000000000000000000000000000000000000000000000000000000000815260040161175e90613a8e565b60405180910390fd5b426002546117759190613aae565b905090565b60008054906101000a900473ffffffffffffffffffffffffffffffffffffffff1681565b6117a66125f3565b60025442116117ea576040517f08c379a00000000000000000000000000000000000000000000000000000000081526004016117e190613b54565b60405180910390fd5b6117f26125f3565b6000805b600780549050811015611a4c576000600860006007848154811061181d5761181c6136de565b5b9060005260206000200160009054906101000a900473ffffffffffffffffffffffffffffffffffffffff1673ffffffffffffffffffffffffffffffffffffffff1673ffffffffffffffffffffffffffffffffffffffff1681526020019081526020016000206040518060c0016040529081600082015481526020016001820180546118a79061334a565b80601f01602080910402602001604051908101604052809291908181526020018280546118d39061334a565b80156119205780601f106118f557610100808354040283529160200191611920565b820191906000526020600020905b81548152906001019060200180831161190357829003601f168201915b50505050508152602001600282015481526020016003820160009054906101000a900473ffffffffffffffffffffffffffffffffffffffff1673ffffffffffffffffffffffffffffffffffffffff1673ffffffffffffffffffffffffffffffffffffffff168152602001600482015481526020016005820180546119a39061334a565b80601f01602080910402602001604051908101604052809291908181526020018280546119cf9061334a565b8015611a1c5780601f106119f157610100808354040283529160200191611a1c565b820191906000526020600020905b8154815290600101906020018083116119ff57829003601f168201915b50505050508152505090508281608001511115611a3e57806080015192508093505b5080806001019150506117f6565b50819250505090565b611a5d61263f565b60008054906101000a900473ffffffffffffffffffffffffffffffffffffffff1673ffffffffffffffffffffffffffffffffffffffff163373ffffffffffffffffffffffffffffffffffffffff1614611aeb576040517f08c379a0000000000000000000000000000000000000000000000000000000008152600401611ae2906131ac565b60405180910390fd5b600a60008373ffffffffffffffffffffffffffffffffffffffff1673ffffffffffffffffffffffffffffffffffffffff1681526020019081526020016000206040518061010001604052908160008201548152602001600182018054611b509061334a565b80601f0160208091040260200160405190810160405280929190818152602001828054611b7c9061334a565b8015611bc95780601f10611b9e57610100808354040283529160200191611bc9565b820191906000526020600020905b815481529060010190602001808311611bac57829003601f168201915b50505050508152602001600282015481526020016003820160009054906101000a900473ffffffffffffffffffffffffffffffffffffffff1673ffffffffffffffffffffffffffffffffffffffff1673ffffffffffffffffffffffffffffffffffffffff1681526020016003820160149054906101000a900460ff16151515158152602001600482018054611c5d9061334a565b80601f0160208091040260200160405190810160405280929190818152602001828054611c899061334a565b8015611cd65780601f10611cab57610100808354040283529160200191611cd6565b820191906000526020600020905b815481529060010190602001808311611cb957829003601f168201915b50505050508152602001600582015481526020016006820154815250509050919050565b606060008054906101000a900473ffffffffffffffffffffffffffffffffffffffff1673ffffffffffffffffffffffffffffffffffffffff163373ffffffffffffffffffffffffffffffffffffffff1614611d8a576040517f08c379a0000000000000000000000000000000000000000000000000000000008152600401611d81906131ac565b60405180910390fd5b600b805480602002602001604051908101604052809291908181526020018280548015611e0c57602002820191906000526020600020905b8160009054906101000a900473ffffffffffffffffffffffffffffffffffffffff1673ffffffffffffffffffffffffffffffffffffffff1681526020019060010190808311611dc2575b5050505050905090565b6000606060008060006060600860008873ffffffffffffffffffffffffffffffffffffffff1673ffffffffffffffffffffffffffffffffffffffff16815260200190815260200160002060000154600860008973ffffffffffffffffffffffffffffffffffffffff1673ffffffffffffffffffffffffffffffffffffffff168152602001908152602001600020600101600860008a73ffffffffffffffffffffffffffffffffffffffff1673ffffffffffffffffffffffffffffffffffffffff16815260200190815260200160002060020154600860008b73ffffffffffffffffffffffffffffffffffffffff1673ffffffffffffffffffffffffffffffffffffffff16815260200190815260200160002060030160009054906101000a900473ffffffffffffffffffffffffffffffffffffffff16600860008c73ffffffffffffffffffffffffffffffffffffffff1673ffffffffffffffffffffffffffffffffffffffff16815260200190815260200160002060040154600860008d73ffffffffffffffffffffffffffffffffffffffff1673ffffffffffffffffffffffffffffffffffffffff168152602001908152602001600020600501848054611fdd9061334a565b80601f01602080910402602001604051908101604052809291908181526020018280546120099061334a565b80156120565780601f1061202b57610100808354040283529160200191612056565b820191906000526020600020905b81548152906001019060200180831161203957829003601f168201915b505050505094508080546120699061334a565b80601f01602080910402602001604051908101604052809291908181526020018280546120959061334a565b80156120e25780601f106120b7576101008083540402835291602001916120e2565b820191906000526020600020905b8154815290600101906020018083116120c557829003601f168201915b5050505050905095509550955095509550955091939550919395565b6000600980549050905090565b60008054906101000a900473ffffffffffffffffffffffffffffffffffffffff1673ffffffffffffffffffffffffffffffffffffffff163373ffffffffffffffffffffffffffffffffffffffff1614612199576040517f08c379a0000000000000000000000000000000000000000000000000000000008152600401612190906131ac565b60405180910390fd5b6000600360006101000a81548160ff0219169083151502179055506000600281905550565b60015442101580156121d257506002544211155b612211576040517f08c379a000000000000000000000000000000000000000000000000000000000815260040161220890613a8e565b60405180910390fd5b6122a182600780548060200260200160405190810160405280929190818152602001828054801561229757602002820191906000526020600020905b8160009054906101000a900473ffffffffffffffffffffffffffffffffffffffff1673ffffffffffffffffffffffffffffffffffffffff168152602001906001019080831161224d575b5050505050612507565b6122e0576040517f08c379a00000000000000000000000000000000000000000000000000000000081526004016122d790613be6565b60405180910390fd5b6000600a60003373ffffffffffffffffffffffffffffffffffffffff1673ffffffffffffffffffffffffffffffffffffffff16815260200190815260200160002090508060030160149054906101000a900460ff1615612375576040517f08c379a000000000000000000000000000000000000000000000000000000000815260040161236c90613c52565b60405180910390fd5b60008160060154036123bc576040517f08c379a00000000000000000000000000000000000000000000000000000000081526004016123b390613cbe565b60405180910390fd5b60018160030160146101000a81548160ff021916908315150217905550818160050181905550600b339080600181540180825580915050600190039060005260206000200160009091909190916101000a81548173ffffffffffffffffffffffffffffffffffffffff021916908373ffffffffffffffffffffffffffffffffffffffff160217905550600860008473ffffffffffffffffffffffffffffffffffffffff1673ffffffffffffffffffffffffffffffffffffffff1681526020019081526020016000206004016000815480929190612498906132d3565b9190505550813373ffffffffffffffffffffffffffffffffffffffff167f906663c782b729d157b52ef6ec5eb35d71e674f813a7841b46e1415e7a9b48c760405160405180910390a3505050565b60006a636f6e736f6c652e6c6f679050600080835160208501845afa505050565b600080600090505b825181101561257c578373ffffffffffffffffffffffffffffffffffffffff16838281518110612542576125416136de565b5b602002602001015173ffffffffffffffffffffffffffffffffffffffff160361256f576001915050612582565b808060010191505061250f565b50600090505b92915050565b612590613cde565b565b50805461259e9061334a565b6000825580601f106125b057506125cf565b601f0160209004906000526020600020908101906125ce919061269c565b5b50565b50805460008255906000526020600020908101906125f0919061269c565b50565b6040518060c00160405280600081526020016060815260200160008152602001600073ffffffffffffffffffffffffffffffffffffffff16815260200160008152602001606081525090565b604051806101000160405280600081526020016060815260200160008152602001600073ffffffffffffffffffffffffffffffffffffffff1681526020016000151581526020016060815260200160008152602001600081525090565b5b808211156126b557600081600090555060010161269d565b5090565b6000604051905090565b600080fd5b600080fd5b600073ffffffffffffffffffffffffffffffffffffffff82169050919050565b60006126f8826126cd565b9050919050565b612708816126ed565b811461271357600080fd5b50565b600081359050612725816126ff565b92915050565b600080fd5b600080fd5b6000601f19601f8301169050919050565b7f4e487b7100000000000000000000000000000000000000000000000000000000600052604160045260246000fd5b61277e82612735565b810181811067ffffffffffffffff8211171561279d5761279c612746565b5b80604052505050565b60006127b06126b9565b90506127bc8282612775565b919050565b600067ffffffffffffffff8211156127dc576127db612746565b5b6127e582612735565b9050602081019050919050565b82818337600083830152505050565b600061281461280f846127c1565b6127a6565b9050828152602081018484840111156128305761282f612730565b5b61283b8482856127f2565b509392505050565b600082601f8301126128585761285761272b565b5b8135612868848260208601612801565b91505092915050565b6000819050919050565b61288481612871565b811461288f57600080fd5b50565b6000813590506128a18161287b565b92915050565b600080600080608085870312156128c1576128c06126c3565b5b60006128cf87828801612716565b945050602085013567ffffffffffffffff8111156128f0576128ef6126c8565b5b6128fc87828801612843565b935050604061290d87828801612892565b925050606085013567ffffffffffffffff81111561292e5761292d6126c8565b5b61293a87828801612843565b91505092959194509250565b61294f81612871565b82525050565b600060208201905061296a6000830184612946565b92915050565b60008115159050919050565b61298581612970565b82525050565b60006020820190506129a0600083018461297c565b92915050565b600081519050919050565b600082825260208201905092915050565b6000819050602082019050919050565b6129db81612871565b82525050565b600081519050919050565b600082825260208201905092915050565b60005b83811015612a1b578082015181840152602081019050612a00565b60008484015250505050565b6000612a32826129e1565b612a3c81856129ec565b9350612a4c8185602086016129fd565b612a5581612735565b840191505092915050565b612a69816126ed565b82525050565b600060c083016000830151612a8760008601826129d2565b5060208301518482036020860152612a9f8282612a27565b9150506040830151612ab460408601826129d2565b506060830151612ac76060860182612a60565b506080830151612ada60808601826129d2565b5060a083015184820360a0860152612af28282612a27565b9150508091505092915050565b6000612b0b8383612a6f565b905092915050565b6000602082019050919050565b6000612b2b826129a6565b612b3581856129b1565b935083602082028501612b47856129c2565b8060005b85811015612b835784840389528151612b648582612aff565b9450612b6f83612b13565b925060208a01995050600181019050612b4b565b50829750879550505050505092915050565b60006020820190508181036000830152612baf8184612b20565b905092915050565b600081519050919050565b600082825260208201905092915050565b6000819050602082019050919050565b612bec81612970565b82525050565b600061010083016000830151612c0b60008601826129d2565b5060208301518482036020860152612c238282612a27565b9150506040830151612c3860408601826129d2565b506060830151612c4b6060860182612a60565b506080830151612c5e6080860182612be3565b5060a083015184820360a0860152612c768282612a27565b91505060c0830151612c8b60c08601826129d2565b5060e0830151612c9e60e08601826129d2565b508091505092915050565b6000612cb58383612bf2565b905092915050565b6000602082019050919050565b6000612cd582612bb7565b612cdf8185612bc2565b935083602082028501612cf185612bd3565b8060005b85811015612d2d5784840389528151612d0e8582612ca9565b9450612d1983612cbd565b925060208a01995050600181019050612cf5565b50829750879550505050505092915050565b60006020820190508181036000830152612d598184612cca565b905092915050565b600060208284031215612d7757612d766126c3565b5b6000612d8584828501612892565b91505092915050565b612d97816126ed565b82525050565b6000602082019050612db26000830184612d8e565b92915050565b600060c083016000830151612dd060008601826129d2565b5060208301518482036020860152612de88282612a27565b9150506040830151612dfd60408601826129d2565b506060830151612e106060860182612a60565b506080830151612e2360808601826129d2565b5060a083015184820360a0860152612e3b8282612a27565b9150508091505092915050565b60006020820190508181036000830152612e628184612db8565b905092915050565b600060208284031215612e8057612e7f6126c3565b5b6000612e8e84828501612716565b91505092915050565b600061010083016000830151612eb060008601826129d2565b5060208301518482036020860152612ec88282612a27565b9150506040830151612edd60408601826129d2565b506060830151612ef06060860182612a60565b506080830151612f036080860182612be3565b5060a083015184820360a0860152612f1b8282612a27565b91505060c0830151612f3060c08601826129d2565b5060e0830151612f4360e08601826129d2565b508091505092915050565b60006020820190508181036000830152612f688184612e97565b905092915050565b600081519050919050565b600082825260208201905092915050565b6000819050602082019050919050565b6000612fa88383612a60565b60208301905092915050565b6000602082019050919050565b6000612fcc82612f70565b612fd68185612f7b565b9350612fe183612f8c565b8060005b83811015613012578151612ff98882612f9c565b975061300483612fb4565b925050600181019050612fe5565b5085935050505092915050565b600060208201905081810360008301526130398184612fc1565b905092915050565b600082825260208201905092915050565b600061305d826129e1565b6130678185613041565b93506130778185602086016129fd565b61308081612735565b840191505092915050565b600060c0820190506130a06000830189612946565b81810360208301526130b28188613052565b90506130c16040830187612946565b6130ce6060830186612d8e565b6130db6080830185612946565b81810360a08301526130ed8184613052565b9050979650505050505050565b60008060408385031215613111576131106126c3565b5b600061311f85828601612716565b925050602061313085828601612892565b9150509250929050565b7f4f6e6c79204f776e65722f41646d696e2063616e2063616c6c2074686973206660008201527f756e6374696f6e00000000000000000000000000000000000000000000000000602082015250565b6000613196602783613041565b91506131a18261313a565b604082019050919050565b600060208201905081810360008301526131c581613189565b9050919050565b7f566f74696e6720697320696e2070726f67726573730000000000000000000000600082015250565b6000613202601583613041565b915061320d826131cc565b602082019050919050565b60006020820190508181036000830152613231816131f5565b9050919050565b7f43616e64696461746520697320416c7265616479205265676973746572656400600082015250565b600061326e601f83613041565b915061327982613238565b602082019050919050565b6000602082019050818103600083015261329d81613261565b9050919050565b7f4e487b7100000000000000000000000000000000000000000000000000000000600052601160045260246000fd5b60006132de82612871565b91507fffffffffffffffffffffffffffffffffffffffffffffffffffffffffffffffff82036133105761330f6132a4565b5b600182019050919050565b7f4e487b7100000000000000000000000000000000000000000000000000000000600052602260045260246000fd5b6000600282049050600182168061336257607f821691505b6020821081036133755761337461331b565b5b50919050565b60008190508160005260206000209050919050565b60006020601f8301049050919050565b600082821b905092915050565b6000600883026133dd7fffffffffffffffffffffffffffffffffffffffffffffffffffffffffffffffff826133a0565b6133e786836133a0565b95508019841693508086168417925050509392505050565b6000819050919050565b600061342461341f61341a84612871565b6133ff565b612871565b9050919050565b6000819050919050565b61343e83613409565b61345261344a8261342b565b8484546133ad565b825550505050565b600090565b61346761345a565b613472818484613435565b505050565b5b818110156134965761348b60008261345f565b600181019050613478565b5050565b601f8211156134db576134ac8161337b565b6134b584613390565b810160208510156134c4578190505b6134d86134d085613390565b830182613477565b50505b505050565b600082821c905092915050565b60006134fe600019846008026134e0565b1980831691505092915050565b600061351783836134ed565b9150826002028217905092915050565b613530826129e1565b67ffffffffffffffff81111561354957613548612746565b5b613553825461334a565b61355e82828561349a565b600060209050601f831160018114613591576000841561357f578287015190505b613589858261350b565b8655506135f1565b601f19841661359f8661337b565b60005b828110156135c7578489015182556001820191506020850194506020810190506135a2565b868310156135e457848901516135e0601f8916826134ed565b8355505b6001600288020188555050505b505050505050565b600081546136068161334a565b6136108186613041565b9450600182166000811461362b576001811461364157613674565b60ff198316865281151560200286019350613674565b61364a8561337b565b60005b8381101561366c5781548189015260018201915060208101905061364d565b808801955050505b50505092915050565b600060a08201905081810360008301526136978188613052565b90506136a66020830187612946565b6136b36040830186612d8e565b6136c06060830185612946565b81810360808301526136d281846135f9565b90509695505050505050565b7f4e487b7100000000000000000000000000000000000000000000000000000000600052603260045260246000fd5b7f566f74657220697320416c726561647920526567697374657265640000000000600082015250565b6000613743601b83613041565b915061374e8261370d565b602082019050919050565b6000602082019050818103600083015261377281613736565b9050919050565b600060a082019050818103600083015261379381886135f9565b90506137a26020830187612946565b6137af6040830186612d8e565b6137bc606083018561297c565b81810360808301526137ce81846135f9565b90509695505050505050565b7f566f74696e6720697320616c7265616479205374617274656400000000000000600082015250565b6000613810601983613041565b915061381b826137da565b602082019050919050565b6000602082019050818103600083015261383f81613803565b9050919050565b7f52656769737465722043616e646964617465732053686f756c64206265206d6f60008201527f7265207468616e204f6e65000000000000000000000000000000000000000000602082015250565b60006138a2602b83613041565b91506138ad82613846565b604082019050919050565b600060208201905081810360008301526138d181613895565b9050919050565b7f5468657265206973206e6f20766f74657220696e207468652073797374656d00600082015250565b600061390e601f83613041565b9150613919826138d8565b602082019050919050565b6000602082019050818103600083015261393d81613901565b9050919050565b600061394f82612871565b915061395a83612871565b925082820261396881612871565b9150828204841483151761397f5761397e6132a4565b5b5092915050565b600061399182612871565b915061399c83612871565b92508282019050808211156139b4576139b36132a4565b5b92915050565b7f566f74696e672068617320737563657366756c6c792073746172746564000000600082015250565b60006139f0601d83613041565b91506139fb826139ba565b602082019050919050565b6000606082019050613a1b6000830185612946565b613a286020830184612946565b8181036040830152613a39816139e3565b90509392505050565b7f766f74696e67206973206e6f7420616374697665000000000000000000000000600082015250565b6000613a78601483613041565b9150613a8382613a42565b602082019050919050565b60006020820190508181036000830152613aa781613a6b565b9050919050565b6000613ab982612871565b9150613ac483612871565b9250828203905081811115613adc57613adb6132a4565b5b92915050565b7f566f74696e6720697320696e2070726f67726573732c20506c6561736520776160008201527f697420746f20626520636f6d706c657465640000000000000000000000000000602082015250565b6000613b3e603283613041565b9150613b4982613ae2565b604082019050919050565b60006020820190508181036000830152613b6d81613b31565b9050919050565b7f73656c65637465642043616e646964617465206973206e6f7420417574686f7260008201527f61697a656420746f20566f746520000000000000000000000000000000000000602082015250565b6000613bd0602e83613041565b9150613bdb82613b74565b604082019050919050565b60006020820190508181036000830152613bff81613bc3565b9050919050565b7f596f75206861766520616c726561647920766f74656400000000000000000000600082015250565b6000613c3c601683613041565b9150613c4782613c06565b602082019050919050565b60006020820190508181036000830152613c6b81613c2f565b9050919050565b7f596f752068617665206e6f20726967687420746f20766f746500000000000000600082015250565b6000613ca8601983613041565b9150613cb382613c72565b602082019050919050565b60006020820190508181036000830152613cd781613c9b565b9050919050565b7f4e487b7100000000000000000000000000000000000000000000000000000000600052605160045260246000fdfea2646970667358221220d502be492b751ada452254e424db93889c92053d60c0c150dd58df41ade5f8db64736f6c6343000818003354686520436f6e74726163742069732073756363657366756c6c79206465706c6f796564",
  "linkReferences": {},
  "deployedLinkReferences": {}
}