{
  "_format": "hh-sol-artifact-1",
  "contractName": "Voting",
  "sourceName": "contracts/Voting.sol",
  "abi": [
    {
      "inputs": [],
      "stateMutability": "nonpayable",
      "type": "constructor"
    },
    {
      "anonymous": false,
      "inputs": [
        {
          "indexed": true,
          "internalType": "uint256",
          "name": "registerId",
          "type": "uint256"
        },
        {
          "indexed": false,
          "internalType": "string",
          "name": "name",
          "type": "string"
        },
        {
          "indexed": false,
          "internalType": "uint256",
          "name": "age",
          "type": "uint256"
        },
        {
          "indexed": false,
          "internalType": "address",
          "name": "candidateAddress",
          "type": "address"
        },
        {
          "indexed": false,
          "internalType": "uint256",
          "name": "voteCount",
          "type": "uint256"
        },
        {
          "indexed": false,
          "internalType": "string",
          "name": "ipfs",
          "type": "string"
        }
      ],
      "name": "candidateCreated",
      "type": "event"
    },
    {
      "anonymous": false,
      "inputs": [
        {
          "indexed": true,
          "internalType": "address",
          "name": "voterAddress",
          "type": "address"
        },
        {
          "indexed": true,
          "internalType": "uint256",
          "name": "candidateId",
          "type": "uint256"
        }
      ],
      "name": "voteCasted",
      "type": "event"
    },
    {
      "anonymous": false,
      "inputs": [
        {
          "indexed": true,
          "internalType": "uint256",
          "name": "registerId",
          "type": "uint256"
        },
        {
          "indexed": false,
          "internalType": "string",
          "name": "name",
          "type": "string"
        },
        {
          "indexed": false,
          "internalType": "uint256",
          "name": "age",
          "type": "uint256"
        },
        {
          "indexed": false,
          "internalType": "address",
          "name": "voterAddress",
          "type": "address"
        },
        {
          "indexed": false,
          "internalType": "bool",
          "name": "hasVoted",
          "type": "bool"
        },
        {
          "indexed": false,
          "internalType": "string",
          "name": "ipfs",
          "type": "string"
        }
      ],
      "name": "voterCreated",
      "type": "event"
    },
    {
      "anonymous": false,
      "inputs": [
        {
          "indexed": false,
          "internalType": "uint256",
          "name": "_votingStartTime",
          "type": "uint256"
        },
        {
          "indexed": false,
          "internalType": "uint256",
          "name": "_votingEndTime",
          "type": "uint256"
        },
        {
          "indexed": false,
          "internalType": "string",
          "name": "message",
          "type": "string"
        }
      ],
      "name": "votingStarted",
      "type": "event"
    },
    {
      "inputs": [
        {
          "internalType": "address",
          "name": "_candidateAddress",
          "type": "address"
        },
        {
          "internalType": "string",
          "name": "_name",
          "type": "string"
        },
        {
          "internalType": "uint256",
          "name": "_age",
          "type": "uint256"
        },
        {
          "internalType": "string",
          "name": "_ipfs",
          "type": "string"
        }
      ],
      "name": "addCandidate",
      "outputs": [],
      "stateMutability": "nonpayable",
      "type": "function"
    },
    {
      "inputs": [
        {
          "internalType": "address",
          "name": "_voterAddress",
          "type": "address"
        },
        {
          "internalType": "string",
          "name": "_name",
          "type": "string"
        },
        {
          "internalType": "uint256",
          "name": "_age",
          "type": "uint256"
        },
        {
          "internalType": "string",
          "name": "_ipfs",
          "type": "string"
        }
      ],
      "name": "addVoter",
      "outputs": [],
      "stateMutability": "nonpayable",
      "type": "function"
    },
    {
      "inputs": [
        {
          "internalType": "uint256",
          "name": "",
          "type": "uint256"
        }
      ],
      "name": "candidateAddress",
      "outputs": [
        {
          "internalType": "address",
          "name": "",
          "type": "address"
        }
      ],
      "stateMutability": "view",
      "type": "function"
    },
    {
      "inputs": [
        {
          "internalType": "address",
          "name": "_candidateAddress",
          "type": "address"
        },
        {
          "internalType": "uint256",
          "name": "_candidateId",
          "type": "uint256"
        }
      ],
      "name": "castVote",
      "outputs": [],
      "stateMutability": "nonpayable",
      "type": "function"
    },
    {
      "inputs": [],
      "name": "getAllCandidates",
      "outputs": [
        {
          "components": [
            {
              "internalType": "uint256",
              "name": "registerId",
              "type": "uint256"
            },
            {
              "internalType": "string",
              "name": "name",
              "type": "string"
            },
            {
              "internalType": "uint256",
              "name": "age",
              "type": "uint256"
            },
            {
              "internalType": "address",
              "name": "candidateAddress",
              "type": "address"
            },
            {
              "internalType": "uint256",
              "name": "voteCount",
              "type": "uint256"
            },
            {
              "internalType": "string",
              "name": "ipfs",
              "type": "string"
            }
          ],
          "internalType": "struct Voting.Candidate[]",
          "name": "",
          "type": "tuple[]"
        }
      ],
      "stateMutability": "view",
      "type": "function"
    },
    {
      "inputs": [],
      "name": "getAllVoters",
      "outputs": [
        {
          "components": [
            {
              "internalType": "uint256",
              "name": "registerId",
              "type": "uint256"
            },
            {
              "internalType": "string",
              "name": "name",
              "type": "string"
            },
            {
              "internalType": "uint256",
              "name": "age",
              "type": "uint256"
            },
            {
              "internalType": "address",
              "name": "voterAddress",
              "type": "address"
            },
            {
              "internalType": "bool",
              "name": "hasVoted",
              "type": "bool"
            },
            {
              "internalType": "string",
              "name": "ipfs",
              "type": "string"
            },
            {
              "internalType": "uint256",
              "name": "votedFor",
              "type": "uint256"
            },
            {
              "internalType": "uint256",
              "name": "voterAllowed",
              "type": "uint256"
            }
          ],
          "internalType": "struct Voting.Voter[]",
          "name": "",
          "type": "tuple[]"
        }
      ],
      "stateMutability": "view",
      "type": "function"
    },
    {
      "inputs": [],
      "name": "getCandidatesLength",
      "outputs": [
        {
          "internalType": "uint256",
          "name": "",
          "type": "uint256"
        }
      ],
      "stateMutability": "view",
      "type": "function"
    },
    {
      "inputs": [],
      "name": "getListOfVotedVoters",
      "outputs": [
        {
          "internalType": "address[]",
          "name": "",
          "type": "address[]"
        }
      ],
      "stateMutability": "view",
      "type": "function"
    },
    {
      "inputs": [],
      "name": "getRemainingVotingTime",
      "outputs": [
        {
          "internalType": "uint256",
          "name": "",
          "type": "uint256"
        }
      ],
      "stateMutability": "view",
      "type": "function"
    },
    {
      "inputs": [
        {
          "internalType": "address",
          "name": "_candidateAddress",
          "type": "address"
        }
      ],
      "name": "getSingleCandidateData",
      "outputs": [
        {
          "internalType": "uint256",
          "name": "",
          "type": "uint256"
        },
        {
          "internalType": "string",
          "name": "",
          "type": "string"
        },
        {
          "internalType": "uint256",
          "name": "",
          "type": "uint256"
        },
        {
          "internalType": "address",
          "name": "",
          "type": "address"
        },
        {
          "internalType": "uint256",
          "name": "",
          "type": "uint256"
        },
        {
          "internalType": "string",
          "name": "",
          "type": "string"
        }
      ],
      "stateMutability": "view",
      "type": "function"
    },
    {
      "inputs": [
        {
          "internalType": "address",
          "name": "_voterAddress",
          "type": "address"
        }
      ],
      "name": "getSingleVoter",
      "outputs": [
        {
          "components": [
            {
              "internalType": "uint256",
              "name": "registerId",
              "type": "uint256"
            },
            {
              "internalType": "string",
              "name": "name",
              "type": "string"
            },
            {
              "internalType": "uint256",
              "name": "age",
              "type": "uint256"
            },
            {
              "internalType": "address",
              "name": "voterAddress",
              "type": "address"
            },
            {
              "internalType": "bool",
              "name": "hasVoted",
              "type": "bool"
            },
            {
              "internalType": "string",
              "name": "ipfs",
              "type": "string"
            },
            {
              "internalType": "uint256",
              "name": "votedFor",
              "type": "uint256"
            },
            {
              "internalType": "uint256",
              "name": "voterAllowed",
              "type": "uint256"
            }
          ],
          "internalType": "struct Voting.Voter",
          "name": "",
          "type": "tuple"
        }
      ],
      "stateMutability": "view",
      "type": "function"
    },
    {
      "inputs": [],
      "name": "getVotersLength",
      "outputs": [
        {
          "internalType": "uint256",
          "name": "",
          "type": "uint256"
        }
      ],
      "stateMutability": "view",
      "type": "function"
    },
    {
      "inputs": [],
      "name": "getWinner",
      "outputs": [
        {
          "components": [
            {
              "internalType": "uint256",
              "name": "registerId",
              "type": "uint256"
            },
            {
              "internalType": "string",
              "name": "name",
              "type": "string"
            },
            {
              "internalType": "uint256",
              "name": "age",
              "type": "uint256"
            },
            {
              "internalType": "address",
              "name": "candidateAddress",
              "type": "address"
            },
            {
              "internalType": "uint256",
              "name": "voteCount",
              "type": "uint256"
            },
            {
              "internalType": "string",
              "name": "ipfs",
              "type": "string"
            }
          ],
          "internalType": "struct Voting.Candidate",
          "name": "",
          "type": "tuple"
        }
      ],
      "stateMutability": "view",
      "type": "function"
    },
    {
      "inputs": [],
      "name": "isVotingStarted",
      "outputs": [
        {
          "internalType": "bool",
          "name": "",
          "type": "bool"
        }
      ],
      "stateMutability": "view",
      "type": "function"
    },
    {
      "inputs": [],
      "name": "owner",
      "outputs": [
        {
          "internalType": "address",
          "name": "",
          "type": "address"
        }
      ],
      "stateMutability": "view",
      "type": "function"
    },
    {
      "inputs": [],
      "name": "resetVotingContract",
      "outputs": [],
      "stateMutability": "nonpayable",
      "type": "function"
    },
    {
      "inputs": [
        {
          "internalType": "uint256",
          "name": "votingDurationInMinutes",
          "type": "uint256"
        }
      ],
      "name": "startVoting",
      "outputs": [],
      "stateMutability": "nonpayable",
      "type": "function"
    },
    {
      "inputs": [],
      "name": "stopVoting",
      "outputs": [],
      "stateMutability": "nonpayable",
      "type": "function"
    },
    {
      "inputs": [
        {
          "internalType": "uint256",
          "name": "",
          "type": "uint256"
        }
      ],
      "name": "votersAddress",
      "outputs": [
        {
          "internalType": "address",
          "name": "",
          "type": "address"
        }
      ],
      "stateMutability": "view",
      "type": "function"
    },
    {
      "inputs": [],
      "name": "votingEndTime",
      "outputs": [
        {
          "internalType": "uint256",
          "name": "",
          "type": "uint256"
        }
      ],
      "stateMutability": "view",
      "type": "function"
    },
    {
      "inputs": [],
      "name": "votingStartTime",
      "outputs": [
        {
          "internalType": "uint256",
          "name": "",
          "type": "uint256"
        }
      ],
      "stateMutability": "view",
      "type": "function"
    },
    {
      "inputs": [
        {
          "internalType": "uint256",
          "name": "",
          "type": "uint256"
        }
      ],
      "name": "winnerAddress",
      "outputs": [
        {
          "internalType": "address",
          "name": "",
          "type": "address"
        }
      ],
      "stateMutability": "view",
      "type": "function"
    }
  ],
  "bytecode": "0x60806040523480156200001157600080fd5b50336000806101000a81548173ffffffffffffffffffffffffffffffffffffffff021916908373ffffffffffffffffffffffffffffffffffffffff1602179055506000600360006101000a81548160ff0219169083151502179055506200009760405180606001604052806024815260200162003f5c602491396200009d60201b60201c565b62000297565b6200013d81604051602401620000b4919062000244565b6040516020818303038152906040527f41304fac000000000000000000000000000000000000000000000000000000007bffffffffffffffffffffffffffffffffffffffffffffffffffffffff19166020820180517bffffffffffffffffffffffffffffffffffffffffffffffffffffffff83818316178352505050506200014060201b60201c565b50565b6200016681620001616200016960201b62002458176200018a60201b60201c565b60201c565b50565b60006a636f6e736f6c652e6c6f679050600080835160208501845afa505050565b6200019e60201b620024fa17819050919050565b620001a862000268565b565b600081519050919050565b600082825260208201905092915050565b60005b83811015620001e6578082015181840152602081019050620001c9565b60008484015250505050565b6000601f19601f8301169050919050565b60006200021082620001aa565b6200021c8185620001b5565b93506200022e818560208601620001c6565b6200023981620001f2565b840191505092915050565b6000602082019050818103600083015262000260818462000203565b905092915050565b7f4e487b7100000000000000000000000000000000000000000000000000000000600052605160045260246000fd5b613cb580620002a76000396000f3fe608060405234801561001057600080fd5b50600436106101425760003560e01c806343242daa116100b8578063aa1d46801161007c578063aa1d468014610343578063d20b771914610373578063da9745ed14610391578063de2237d3146103c6578063fab2f86b146103e4578063ff91bb45146103ee57610142565b806343242daa146102895780635544c15c146102b9578063577ef5c0146102e95780638da5cb5b146103075780638e7ea5b21461032557610142565b80632019a6081161010a5780632019a608146101c557806325709fa6146101e35780632e6997fe1461020157806335bbe70e1461021f5780633a88251a1461023d5780633d2f5bda1461026d57610142565b806302caeb4114610147578063054323d0146101635780631859df651461016d5780631ea736e01461018b5780631f2919fe146101a9575b600080fd5b610161600480360381019061015c9190612819565b61040a565b005b61016b610753565b005b610175610a5e565b60405161018291906128c7565b60405180910390f35b610193610a6b565b6040516101a091906128c7565b60405180910390f35b6101c360048036038101906101be9190612819565b610a71565b005b6101cd610e0f565b6040516101da91906128c7565b60405180910390f35b6101eb610e15565b6040516101f891906128fd565b60405180910390f35b610209610e28565b6040516102169190612b07565b60405180910390f35b6102276110ea565b6040516102349190612cb1565b60405180910390f35b61025760048036038101906102529190612cd3565b6113d2565b6040516102649190612d0f565b60405180910390f35b61028760048036038101906102829190612cd3565b611411565b005b6102a3600480360381019061029e9190612cd3565b611606565b6040516102b09190612d0f565b60405180910390f35b6102d360048036038101906102ce9190612cd3565b611645565b6040516102e09190612d0f565b60405180910390f35b6102f1611684565b6040516102fe91906128c7565b60405180910390f35b61030f6116ec565b60405161031c9190612d0f565b60405180910390f35b61032d611710565b60405161033a9190612dba565b60405180910390f35b61035d60048036038101906103589190612ddc565b6119c7565b60405161036a9190612ec0565b60405180910390f35b61037b611c6c565b6040516103889190612f91565b60405180910390f35b6103ab60048036038101906103a69190612ddc565b611d88565b6040516103bd96959493929190612ffd565b60405180910390f35b6103ce612070565b6040516103db91906128c7565b60405180910390f35b6103ec61207d565b005b6104086004803603810190610403919061306c565b612130565b005b60008054906101000a900473ffffffffffffffffffffffffffffffffffffffff1673ffffffffffffffffffffffffffffffffffffffff163373ffffffffffffffffffffffffffffffffffffffff1614610498576040517f08c379a000000000000000000000000000000000000000000000000000000000815260040161048f9061311e565b60405180910390fd5b60001515600360009054906101000a900460ff161515146104ee576040517f08c379a00000000000000000000000000000000000000000000000000000000081526004016104e59061318a565b60405180910390fd5b61057e84600780548060200260200160405190810160405280929190818152602001828054801561057457602002820191906000526020600020905b8160009054906101000a900473ffffffffffffffffffffffffffffffffffffffff1673ffffffffffffffffffffffffffffffffffffffff168152602001906001019080831161052a575b5050505050612479565b156105be576040517f08c379a00000000000000000000000000000000000000000000000000000000081526004016105b5906131f6565b60405180910390fd5b600560008154809291906105d190613245565b91905055506000600860008673ffffffffffffffffffffffffffffffffffffffff1673ffffffffffffffffffffffffffffffffffffffff16815260200190815260200160002090508381600101908161062a9190613499565b50828160020181905550600554816000018190555060008160040181905550848160030160006101000a81548173ffffffffffffffffffffffffffffffffffffffff021916908373ffffffffffffffffffffffffffffffffffffffff1602179055508181600501908161069d9190613499565b506007859080600181540180825580915050600190039060005260206000200160009091909190916101000a81548173ffffffffffffffffffffffffffffffffffffffff021916908373ffffffffffffffffffffffffffffffffffffffff16021790555080600001547ff97de1de7c79ab588b7765336ac90c7d0a82fa75da74538f8b8101f50bc93ee28585888560040154866005016040516107449594939291906135ef565b60405180910390a25050505050565b60008054906101000a900473ffffffffffffffffffffffffffffffffffffffff1673ffffffffffffffffffffffffffffffffffffffff163373ffffffffffffffffffffffffffffffffffffffff16146107e1576040517f08c379a00000000000000000000000000000000000000000000000000000000081526004016107d89061311e565b60405180910390fd5b60005b6007805490508110156108dd57600860006007838154811061080957610808613650565b5b9060005260206000200160009054906101000a900473ffffffffffffffffffffffffffffffffffffffff1673ffffffffffffffffffffffffffffffffffffffff1673ffffffffffffffffffffffffffffffffffffffff1681526020019081526020016000206000808201600090556001820160006108879190612504565b60028201600090556003820160006101000a81549073ffffffffffffffffffffffffffffffffffffffff021916905560048201600090556005820160006108ce9190612504565b505080806001019150506107e4565b5060005b6009805490508110156109f657600a60006009838154811061090657610905613650565b5b9060005260206000200160009054906101000a900473ffffffffffffffffffffffffffffffffffffffff1673ffffffffffffffffffffffffffffffffffffffff1673ffffffffffffffffffffffffffffffffffffffff1681526020019081526020016000206000808201600090556001820160006109849190612504565b60028201600090556003820160006101000a81549073ffffffffffffffffffffffffffffffffffffffff02191690556003820160146101000a81549060ff02191690556004820160006109d79190612504565b60058201600090556006820160009055505080806001019150506108e1565b5060076000610a059190612544565b60096000610a139190612544565b600b6000610a219190612544565b600060048190555060006005819055506000600360006101000a81548160ff02191690831515021790555060006001819055506000600281905550565b6000600780549050905090565b60025481565b60008054906101000a900473ffffffffffffffffffffffffffffffffffffffff1673ffffffffffffffffffffffffffffffffffffffff163373ffffffffffffffffffffffffffffffffffffffff1614610aff576040517f08c379a0000000000000000000000000000000000000000000000000000000008152600401610af69061311e565b60405180910390fd5b60001515600360009054906101000a900460ff16151514610b55576040517f08c379a0000000000000000000000000000000000000000000000000000000008152600401610b4c9061318a565b60405180910390fd5b610be5846009805480602002602001604051908101604052809291908181526020018280548015610bdb57602002820191906000526020600020905b8160009054906101000a900473ffffffffffffffffffffffffffffffffffffffff1673ffffffffffffffffffffffffffffffffffffffff1681526020019060010190808311610b91575b5050505050612479565b15610c25576040517f08c379a0000000000000000000000000000000000000000000000000000000008152600401610c1c906136cb565b60405180910390fd5b60046000815480929190610c3890613245565b91905055506000600a60008673ffffffffffffffffffffffffffffffffffffffff1673ffffffffffffffffffffffffffffffffffffffff16815260200190815260200160002090506001816006018190555060008160030160146101000a81548160ff02191690831515021790555083816001019081610cb89190613499565b50828160020181905550848160030160006101000a81548173ffffffffffffffffffffffffffffffffffffffff021916908373ffffffffffffffffffffffffffffffffffffffff160217905550600454816000018190555081816004019081610d219190613499565b506009859080600181540180825580915050600190039060005260206000200160009091909190916101000a81548173ffffffffffffffffffffffffffffffffffffffff021916908373ffffffffffffffffffffffffffffffffffffffff16021790555080600001547f712ee0287ff5040fd1902b718d223d698196825f1debaefa1d5ffa204dc663908260010183600201548460030160009054906101000a900473ffffffffffffffffffffffffffffffffffffffff168560030160149054906101000a900460ff1686600401604051610e009594939291906136eb565b60405180910390a25050505050565b60015481565b600360009054906101000a900460ff1681565b6060600060078054905067ffffffffffffffff811115610e4b57610e4a6126b8565b5b604051908082528060200260200182016040528015610e8457816020015b610e71612565565b815260200190600190039081610e695790505b50905060005b6007805490508110156110e2576008600060078381548110610eaf57610eae613650565b5b9060005260206000200160009054906101000a900473ffffffffffffffffffffffffffffffffffffffff1673ffffffffffffffffffffffffffffffffffffffff1673ffffffffffffffffffffffffffffffffffffffff1681526020019081526020016000206040518060c001604052908160008201548152602001600182018054610f39906132bc565b80601f0160208091040260200160405190810160405280929190818152602001828054610f65906132bc565b8015610fb25780601f10610f8757610100808354040283529160200191610fb2565b820191906000526020600020905b815481529060010190602001808311610f9557829003601f168201915b50505050508152602001600282015481526020016003820160009054906101000a900473ffffffffffffffffffffffffffffffffffffffff1673ffffffffffffffffffffffffffffffffffffffff1673ffffffffffffffffffffffffffffffffffffffff16815260200160048201548152602001600582018054611035906132bc565b80601f0160208091040260200160405190810160405280929190818152602001828054611061906132bc565b80156110ae5780601f10611083576101008083540402835291602001916110ae565b820191906000526020600020905b81548152906001019060200180831161109157829003601f168201915b5050505050815250508282815181106110ca576110c9613650565b5b60200260200101819052508080600101915050610e8a565b508091505090565b6060600060098054905067ffffffffffffffff81111561110d5761110c6126b8565b5b60405190808252806020026020018201604052801561114657816020015b6111336125b1565b81526020019060019003908161112b5790505b50905060005b6009805490508110156113ca57600a60006009838154811061117157611170613650565b5b9060005260206000200160009054906101000a900473ffffffffffffffffffffffffffffffffffffffff1673ffffffffffffffffffffffffffffffffffffffff1673ffffffffffffffffffffffffffffffffffffffff16815260200190815260200160002060405180610100016040529081600082015481526020016001820180546111fc906132bc565b80601f0160208091040260200160405190810160405280929190818152602001828054611228906132bc565b80156112755780601f1061124a57610100808354040283529160200191611275565b820191906000526020600020905b81548152906001019060200180831161125857829003601f168201915b50505050508152602001600282015481526020016003820160009054906101000a900473ffffffffffffffffffffffffffffffffffffffff1673ffffffffffffffffffffffffffffffffffffffff1673ffffffffffffffffffffffffffffffffffffffff1681526020016003820160149054906101000a900460ff16151515158152602001600482018054611309906132bc565b80601f0160208091040260200160405190810160405280929190818152602001828054611335906132bc565b80156113825780601f1061135757610100808354040283529160200191611382565b820191906000526020600020905b81548152906001019060200180831161136557829003601f168201915b50505050508152602001600582015481526020016006820154815250508282815181106113b2576113b1613650565b5b6020026020010181905250808060010191505061114c565b508091505090565b600781815481106113e257600080fd5b906000526020600020016000915054906101000a900473ffffffffffffffffffffffffffffffffffffffff1681565b60008054906101000a900473ffffffffffffffffffffffffffffffffffffffff1673ffffffffffffffffffffffffffffffffffffffff163373ffffffffffffffffffffffffffffffffffffffff161461149f576040517f08c379a00000000000000000000000000000000000000000000000000000000081526004016114969061311e565b60405180910390fd5b60001515600360009054906101000a900460ff161515146114f5576040517f08c379a00000000000000000000000000000000000000000000000000000000081526004016114ec90613798565b60405180910390fd5b6002600780549050101561153e576040517f08c379a00000000000000000000000000000000000000000000000000000000081526004016115359061382a565b60405180910390fd5b600060098054905011611586576040517f08c379a000000000000000000000000000000000000000000000000000000000815260040161157d90613896565b60405180910390fd5b6001600360006101000a81548160ff02191690831515021790555042600181905550603c816115b591906138b6565b426115c091906138f8565b6002819055507ff26ffbf8954319b8e40baf7708ea9d4188186297967babafc3c47b524710af996001546002546040516115fb929190613978565b60405180910390a150565b6009818154811061161657600080fd5b906000526020600020016000915054906101000a900473ffffffffffffffffffffffffffffffffffffffff1681565b6006818154811061165557600080fd5b906000526020600020016000915054906101000a900473ffffffffffffffffffffffffffffffffffffffff1681565b6000600154421015801561169a57506002544211155b6116d9576040517f08c379a00000000000000000000000000000000000000000000000000000000081526004016116d090613a00565b60405180910390fd5b426002546116e79190613a20565b905090565b60008054906101000a900473ffffffffffffffffffffffffffffffffffffffff1681565b611718612565565b600254421161175c576040517f08c379a000000000000000000000000000000000000000000000000000000000815260040161175390613ac6565b60405180910390fd5b611764612565565b6000805b6007805490508110156119be576000600860006007848154811061178f5761178e613650565b5b9060005260206000200160009054906101000a900473ffffffffffffffffffffffffffffffffffffffff1673ffffffffffffffffffffffffffffffffffffffff1673ffffffffffffffffffffffffffffffffffffffff1681526020019081526020016000206040518060c001604052908160008201548152602001600182018054611819906132bc565b80601f0160208091040260200160405190810160405280929190818152602001828054611845906132bc565b80156118925780601f1061186757610100808354040283529160200191611892565b820191906000526020600020905b81548152906001019060200180831161187557829003601f168201915b50505050508152602001600282015481526020016003820160009054906101000a900473ffffffffffffffffffffffffffffffffffffffff1673ffffffffffffffffffffffffffffffffffffffff1673ffffffffffffffffffffffffffffffffffffffff16815260200160048201548152602001600582018054611915906132bc565b80601f0160208091040260200160405190810160405280929190818152602001828054611941906132bc565b801561198e5780601f106119635761010080835404028352916020019161198e565b820191906000526020600020905b81548152906001019060200180831161197157829003601f168201915b505050505081525050905082816080015111156119b057806080015192508093505b508080600101915050611768565b50819250505090565b6119cf6125b1565b60008054906101000a900473ffffffffffffffffffffffffffffffffffffffff1673ffffffffffffffffffffffffffffffffffffffff163373ffffffffffffffffffffffffffffffffffffffff1614611a5d576040517f08c379a0000000000000000000000000000000000000000000000000000000008152600401611a549061311e565b60405180910390fd5b600a60008373ffffffffffffffffffffffffffffffffffffffff1673ffffffffffffffffffffffffffffffffffffffff1681526020019081526020016000206040518061010001604052908160008201548152602001600182018054611ac2906132bc565b80601f0160208091040260200160405190810160405280929190818152602001828054611aee906132bc565b8015611b3b5780601f10611b1057610100808354040283529160200191611b3b565b820191906000526020600020905b815481529060010190602001808311611b1e57829003601f168201915b50505050508152602001600282015481526020016003820160009054906101000a900473ffffffffffffffffffffffffffffffffffffffff1673ffffffffffffffffffffffffffffffffffffffff1673ffffffffffffffffffffffffffffffffffffffff1681526020016003820160149054906101000a900460ff16151515158152602001600482018054611bcf906132bc565b80601f0160208091040260200160405190810160405280929190818152602001828054611bfb906132bc565b8015611c485780601f10611c1d57610100808354040283529160200191611c48565b820191906000526020600020905b815481529060010190602001808311611c2b57829003601f168201915b50505050508152602001600582015481526020016006820154815250509050919050565b606060008054906101000a900473ffffffffffffffffffffffffffffffffffffffff1673ffffffffffffffffffffffffffffffffffffffff163373ffffffffffffffffffffffffffffffffffffffff1614611cfc576040517f08c379a0000000000000000000000000000000000000000000000000000000008152600401611cf39061311e565b60405180910390fd5b600b805480602002602001604051908101604052809291908181526020018280548015611d7e57602002820191906000526020600020905b8160009054906101000a900473ffffffffffffffffffffffffffffffffffffffff1673ffffffffffffffffffffffffffffffffffffffff1681526020019060010190808311611d34575b5050505050905090565b6000606060008060006060600860008873ffffffffffffffffffffffffffffffffffffffff1673ffffffffffffffffffffffffffffffffffffffff16815260200190815260200160002060000154600860008973ffffffffffffffffffffffffffffffffffffffff1673ffffffffffffffffffffffffffffffffffffffff168152602001908152602001600020600101600860008a73ffffffffffffffffffffffffffffffffffffffff1673ffffffffffffffffffffffffffffffffffffffff16815260200190815260200160002060020154600860008b73ffffffffffffffffffffffffffffffffffffffff1673ffffffffffffffffffffffffffffffffffffffff16815260200190815260200160002060030160009054906101000a900473ffffffffffffffffffffffffffffffffffffffff16600860008c73ffffffffffffffffffffffffffffffffffffffff1673ffffffffffffffffffffffffffffffffffffffff16815260200190815260200160002060040154600860008d73ffffffffffffffffffffffffffffffffffffffff1673ffffffffffffffffffffffffffffffffffffffff168152602001908152602001600020600501848054611f4f906132bc565b80601f0160208091040260200160405190810160405280929190818152602001828054611f7b906132bc565b8015611fc85780601f10611f9d57610100808354040283529160200191611fc8565b820191906000526020600020905b815481529060010190602001808311611fab57829003601f168201915b50505050509450808054611fdb906132bc565b80601f0160208091040260200160405190810160405280929190818152602001828054612007906132bc565b80156120545780601f1061202957610100808354040283529160200191612054565b820191906000526020600020905b81548152906001019060200180831161203757829003601f168201915b5050505050905095509550955095509550955091939550919395565b6000600980549050905090565b60008054906101000a900473ffffffffffffffffffffffffffffffffffffffff1673ffffffffffffffffffffffffffffffffffffffff163373ffffffffffffffffffffffffffffffffffffffff161461210b576040517f08c379a00000000000000000000000000000000000000000000000000000000081526004016121029061311e565b60405180910390fd5b6000600360006101000a81548160ff0219169083151502179055506000600281905550565b600154421015801561214457506002544211155b612183576040517f08c379a000000000000000000000000000000000000000000000000000000000815260040161217a90613a00565b60405180910390fd5b61221382600780548060200260200160405190810160405280929190818152602001828054801561220957602002820191906000526020600020905b8160009054906101000a900473ffffffffffffffffffffffffffffffffffffffff1673ffffffffffffffffffffffffffffffffffffffff16815260200190600101908083116121bf575b5050505050612479565b612252576040517f08c379a000000000000000000000000000000000000000000000000000000000815260040161224990613b58565b60405180910390fd5b6000600a60003373ffffffffffffffffffffffffffffffffffffffff1673ffffffffffffffffffffffffffffffffffffffff16815260200190815260200160002090508060030160149054906101000a900460ff16156122e7576040517f08c379a00000000000000000000000000000000000000000000000000000000081526004016122de90613bc4565b60405180910390fd5b600081600601540361232e576040517f08c379a000000000000000000000000000000000000000000000000000000000815260040161232590613c30565b60405180910390fd5b60018160030160146101000a81548160ff021916908315150217905550818160050181905550600b339080600181540180825580915050600190039060005260206000200160009091909190916101000a81548173ffffffffffffffffffffffffffffffffffffffff021916908373ffffffffffffffffffffffffffffffffffffffff160217905550600860008473ffffffffffffffffffffffffffffffffffffffff1673ffffffffffffffffffffffffffffffffffffffff168152602001908152602001600020600401600081548092919061240a90613245565b9190505550813373ffffffffffffffffffffffffffffffffffffffff167f906663c782b729d157b52ef6ec5eb35d71e674f813a7841b46e1415e7a9b48c760405160405180910390a3505050565b60006a636f6e736f6c652e6c6f679050600080835160208501845afa505050565b600080600090505b82518110156124ee578373ffffffffffffffffffffffffffffffffffffffff168382815181106124b4576124b3613650565b5b602002602001015173ffffffffffffffffffffffffffffffffffffffff16036124e15760019150506124f4565b8080600101915050612481565b50600090505b92915050565b612502613c50565b565b508054612510906132bc565b6000825580601f106125225750612541565b601f016020900490600052602060002090810190612540919061260e565b5b50565b5080546000825590600052602060002090810190612562919061260e565b50565b6040518060c00160405280600081526020016060815260200160008152602001600073ffffffffffffffffffffffffffffffffffffffff16815260200160008152602001606081525090565b604051806101000160405280600081526020016060815260200160008152602001600073ffffffffffffffffffffffffffffffffffffffff1681526020016000151581526020016060815260200160008152602001600081525090565b5b8082111561262757600081600090555060010161260f565b5090565b6000604051905090565b600080fd5b600080fd5b600073ffffffffffffffffffffffffffffffffffffffff82169050919050565b600061266a8261263f565b9050919050565b61267a8161265f565b811461268557600080fd5b50565b60008135905061269781612671565b92915050565b600080fd5b600080fd5b6000601f19601f8301169050919050565b7f4e487b7100000000000000000000000000000000000000000000000000000000600052604160045260246000fd5b6126f0826126a7565b810181811067ffffffffffffffff8211171561270f5761270e6126b8565b5b80604052505050565b600061272261262b565b905061272e82826126e7565b919050565b600067ffffffffffffffff82111561274e5761274d6126b8565b5b612757826126a7565b9050602081019050919050565b82818337600083830152505050565b600061278661278184612733565b612718565b9050828152602081018484840111156127a2576127a16126a2565b5b6127ad848285612764565b509392505050565b600082601f8301126127ca576127c961269d565b5b81356127da848260208601612773565b91505092915050565b6000819050919050565b6127f6816127e3565b811461280157600080fd5b50565b600081359050612813816127ed565b92915050565b6000806000806080858703121561283357612832612635565b5b600061284187828801612688565b945050602085013567ffffffffffffffff8111156128625761286161263a565b5b61286e878288016127b5565b935050604061287f87828801612804565b925050606085013567ffffffffffffffff8111156128a05761289f61263a565b5b6128ac878288016127b5565b91505092959194509250565b6128c1816127e3565b82525050565b60006020820190506128dc60008301846128b8565b92915050565b60008115159050919050565b6128f7816128e2565b82525050565b600060208201905061291260008301846128ee565b92915050565b600081519050919050565b600082825260208201905092915050565b6000819050602082019050919050565b61294d816127e3565b82525050565b600081519050919050565b600082825260208201905092915050565b60005b8381101561298d578082015181840152602081019050612972565b60008484015250505050565b60006129a482612953565b6129ae818561295e565b93506129be81856020860161296f565b6129c7816126a7565b840191505092915050565b6129db8161265f565b82525050565b600060c0830160008301516129f96000860182612944565b5060208301518482036020860152612a118282612999565b9150506040830151612a266040860182612944565b506060830151612a3960608601826129d2565b506080830151612a4c6080860182612944565b5060a083015184820360a0860152612a648282612999565b9150508091505092915050565b6000612a7d83836129e1565b905092915050565b6000602082019050919050565b6000612a9d82612918565b612aa78185612923565b935083602082028501612ab985612934565b8060005b85811015612af55784840389528151612ad68582612a71565b9450612ae183612a85565b925060208a01995050600181019050612abd565b50829750879550505050505092915050565b60006020820190508181036000830152612b218184612a92565b905092915050565b600081519050919050565b600082825260208201905092915050565b6000819050602082019050919050565b612b5e816128e2565b82525050565b600061010083016000830151612b7d6000860182612944565b5060208301518482036020860152612b958282612999565b9150506040830151612baa6040860182612944565b506060830151612bbd60608601826129d2565b506080830151612bd06080860182612b55565b5060a083015184820360a0860152612be88282612999565b91505060c0830151612bfd60c0860182612944565b5060e0830151612c1060e0860182612944565b508091505092915050565b6000612c278383612b64565b905092915050565b6000602082019050919050565b6000612c4782612b29565b612c518185612b34565b935083602082028501612c6385612b45565b8060005b85811015612c9f5784840389528151612c808582612c1b565b9450612c8b83612c2f565b925060208a01995050600181019050612c67565b50829750879550505050505092915050565b60006020820190508181036000830152612ccb8184612c3c565b905092915050565b600060208284031215612ce957612ce8612635565b5b6000612cf784828501612804565b91505092915050565b612d098161265f565b82525050565b6000602082019050612d246000830184612d00565b92915050565b600060c083016000830151612d426000860182612944565b5060208301518482036020860152612d5a8282612999565b9150506040830151612d6f6040860182612944565b506060830151612d8260608601826129d2565b506080830151612d956080860182612944565b5060a083015184820360a0860152612dad8282612999565b9150508091505092915050565b60006020820190508181036000830152612dd48184612d2a565b905092915050565b600060208284031215612df257612df1612635565b5b6000612e0084828501612688565b91505092915050565b600061010083016000830151612e226000860182612944565b5060208301518482036020860152612e3a8282612999565b9150506040830151612e4f6040860182612944565b506060830151612e6260608601826129d2565b506080830151612e756080860182612b55565b5060a083015184820360a0860152612e8d8282612999565b91505060c0830151612ea260c0860182612944565b5060e0830151612eb560e0860182612944565b508091505092915050565b60006020820190508181036000830152612eda8184612e09565b905092915050565b600081519050919050565b600082825260208201905092915050565b6000819050602082019050919050565b6000612f1a83836129d2565b60208301905092915050565b6000602082019050919050565b6000612f3e82612ee2565b612f488185612eed565b9350612f5383612efe565b8060005b83811015612f84578151612f6b8882612f0e565b9750612f7683612f26565b925050600181019050612f57565b5085935050505092915050565b60006020820190508181036000830152612fab8184612f33565b905092915050565b600082825260208201905092915050565b6000612fcf82612953565b612fd98185612fb3565b9350612fe981856020860161296f565b612ff2816126a7565b840191505092915050565b600060c08201905061301260008301896128b8565b81810360208301526130248188612fc4565b905061303360408301876128b8565b6130406060830186612d00565b61304d60808301856128b8565b81810360a083015261305f8184612fc4565b9050979650505050505050565b6000806040838503121561308357613082612635565b5b600061309185828601612688565b92505060206130a285828601612804565b9150509250929050565b7f4f6e6c79204f776e65722f41646d696e2063616e2063616c6c2074686973206660008201527f756e6374696f6e00000000000000000000000000000000000000000000000000602082015250565b6000613108602783612fb3565b9150613113826130ac565b604082019050919050565b60006020820190508181036000830152613137816130fb565b9050919050565b7f566f74696e6720697320696e2070726f67726573730000000000000000000000600082015250565b6000613174601583612fb3565b915061317f8261313e565b602082019050919050565b600060208201905081810360008301526131a381613167565b9050919050565b7f43616e64696461746520697320416c7265616479205265676973746572656400600082015250565b60006131e0601f83612fb3565b91506131eb826131aa565b602082019050919050565b6000602082019050818103600083015261320f816131d3565b9050919050565b7f4e487b7100000000000000000000000000000000000000000000000000000000600052601160045260246000fd5b6000613250826127e3565b91507fffffffffffffffffffffffffffffffffffffffffffffffffffffffffffffffff820361328257613281613216565b5b600182019050919050565b7f4e487b7100000000000000000000000000000000000000000000000000000000600052602260045260246000fd5b600060028204905060018216806132d457607f821691505b6020821081036132e7576132e661328d565b5b50919050565b60008190508160005260206000209050919050565b60006020601f8301049050919050565b600082821b905092915050565b60006008830261334f7fffffffffffffffffffffffffffffffffffffffffffffffffffffffffffffffff82613312565b6133598683613312565b95508019841693508086168417925050509392505050565b6000819050919050565b600061339661339161338c846127e3565b613371565b6127e3565b9050919050565b6000819050919050565b6133b08361337b565b6133c46133bc8261339d565b84845461331f565b825550505050565b600090565b6133d96133cc565b6133e48184846133a7565b505050565b5b81811015613408576133fd6000826133d1565b6001810190506133ea565b5050565b601f82111561344d5761341e816132ed565b61342784613302565b81016020851015613436578190505b61344a61344285613302565b8301826133e9565b50505b505050565b600082821c905092915050565b600061347060001984600802613452565b1980831691505092915050565b6000613489838361345f565b9150826002028217905092915050565b6134a282612953565b67ffffffffffffffff8111156134bb576134ba6126b8565b5b6134c582546132bc565b6134d082828561340c565b600060209050601f83116001811461350357600084156134f1578287015190505b6134fb858261347d565b865550613563565b601f198416613511866132ed565b60005b8281101561353957848901518255600182019150602085019450602081019050613514565b868310156135565784890151613552601f89168261345f565b8355505b6001600288020188555050505b505050505050565b60008154613578816132bc565b6135828186612fb3565b9450600182166000811461359d57600181146135b3576135e6565b60ff1983168652811515602002860193506135e6565b6135bc856132ed565b60005b838110156135de578154818901526001820191506020810190506135bf565b808801955050505b50505092915050565b600060a08201905081810360008301526136098188612fc4565b905061361860208301876128b8565b6136256040830186612d00565b61363260608301856128b8565b8181036080830152613644818461356b565b90509695505050505050565b7f4e487b7100000000000000000000000000000000000000000000000000000000600052603260045260246000fd5b7f566f74657220697320416c726561647920526567697374657265640000000000600082015250565b60006136b5601b83612fb3565b91506136c08261367f565b602082019050919050565b600060208201905081810360008301526136e4816136a8565b9050919050565b600060a0820190508181036000830152613705818861356b565b905061371460208301876128b8565b6137216040830186612d00565b61372e60608301856128ee565b8181036080830152613740818461356b565b90509695505050505050565b7f566f74696e6720697320616c7265616479205374617274656400000000000000600082015250565b6000613782601983612fb3565b915061378d8261374c565b602082019050919050565b600060208201905081810360008301526137b181613775565b9050919050565b7f52656769737465722043616e646964617465732053686f756c64206265206d6f60008201527f7265207468616e204f6e65000000000000000000000000000000000000000000602082015250565b6000613814602b83612fb3565b915061381f826137b8565b604082019050919050565b6000602082019050818103600083015261384381613807565b9050919050565b7f5468657265206973206e6f20766f74657220696e207468652073797374656d00600082015250565b6000613880601f83612fb3565b915061388b8261384a565b602082019050919050565b600060208201905081810360008301526138af81613873565b9050919050565b60006138c1826127e3565b91506138cc836127e3565b92508282026138da816127e3565b915082820484148315176138f1576138f0613216565b5b5092915050565b6000613903826127e3565b915061390e836127e3565b925082820190508082111561392657613925613216565b5b92915050565b7f566f74696e672068617320737563657366756c6c792073746172746564000000600082015250565b6000613962601d83612fb3565b915061396d8261392c565b602082019050919050565b600060608201905061398d60008301856128b8565b61399a60208301846128b8565b81810360408301526139ab81613955565b90509392505050565b7f766f74696e67206973206e6f7420616374697665000000000000000000000000600082015250565b60006139ea601483612fb3565b91506139f5826139b4565b602082019050919050565b60006020820190508181036000830152613a19816139dd565b9050919050565b6000613a2b826127e3565b9150613a36836127e3565b9250828203905081811115613a4e57613a4d613216565b5b92915050565b7f566f74696e6720697320696e2070726f67726573732c20506c6561736520776160008201527f697420746f20626520636f6d706c657465640000000000000000000000000000602082015250565b6000613ab0603283612fb3565b9150613abb82613a54565b604082019050919050565b60006020820190508181036000830152613adf81613aa3565b9050919050565b7f73656c65637465642043616e646964617465206973206e6f7420417574686f7260008201527f61697a656420746f20566f746520000000000000000000000000000000000000602082015250565b6000613b42602e83612fb3565b9150613b4d82613ae6565b604082019050919050565b60006020820190508181036000830152613b7181613b35565b9050919050565b7f596f75206861766520616c726561647920766f74656400000000000000000000600082015250565b6000613bae601683612fb3565b9150613bb982613b78565b602082019050919050565b60006020820190508181036000830152613bdd81613ba1565b9050919050565b7f596f752068617665206e6f20726967687420746f20766f746500000000000000600082015250565b6000613c1a601983612fb3565b9150613c2582613be4565b602082019050919050565b60006020820190508181036000830152613c4981613c0d565b9050919050565b7f4e487b7100000000000000000000000000000000000000000000000000000000600052605160045260246000fdfea264697066735822122031b4f2b06ee180b92bb0817edf124e00ff6d902a000c3193b6242d98a423421c64736f6c6343000818003354686520436f6e74726163742069732073756363657366756c6c79206465706c6f796564",
  "linkReferences": {},
  "deployedLinkReferences": {}
}