{
  "_format": "hh-sol-artifact-1",
  "contractName": "Voting",
  "sourceName": "contracts/Voting.sol",
  "abi": [
    {
      "inputs": [],
      "stateMutability": "nonpayable",
      "type": "constructor"
    },
    {
      "anonymous": false,
      "inputs": [
        {
          "indexed": true,
          "internalType": "uint256",
          "name": "registerId",
          "type": "uint256"
        },
        {
          "indexed": false,
          "internalType": "string",
          "name": "name",
          "type": "string"
        },
        {
          "indexed": false,
          "internalType": "uint256",
          "name": "age",
          "type": "uint256"
        },
        {
          "indexed": false,
          "internalType": "address",
          "name": "candidateAddress",
          "type": "address"
        },
        {
          "indexed": false,
          "internalType": "uint256",
          "name": "voteCount",
          "type": "uint256"
        },
        {
          "indexed": false,
          "internalType": "string",
          "name": "ipfs",
          "type": "string"
        }
      ],
      "name": "candidateCreated",
      "type": "event"
    },
    {
      "anonymous": false,
      "inputs": [
        {
          "indexed": true,
          "internalType": "address",
          "name": "voterAddress",
          "type": "address"
        },
        {
          "indexed": true,
          "internalType": "uint256",
          "name": "candidateId",
          "type": "uint256"
        }
      ],
      "name": "voteCasted",
      "type": "event"
    },
    {
      "anonymous": false,
      "inputs": [
        {
          "indexed": true,
          "internalType": "uint256",
          "name": "registerId",
          "type": "uint256"
        },
        {
          "indexed": false,
          "internalType": "string",
          "name": "name",
          "type": "string"
        },
        {
          "indexed": false,
          "internalType": "uint256",
          "name": "age",
          "type": "uint256"
        },
        {
          "indexed": false,
          "internalType": "address",
          "name": "voterAddress",
          "type": "address"
        },
        {
          "indexed": false,
          "internalType": "bool",
          "name": "hasVoted",
          "type": "bool"
        },
        {
          "indexed": false,
          "internalType": "string",
          "name": "ipfs",
          "type": "string"
        }
      ],
      "name": "voterCreated",
      "type": "event"
    },
    {
      "anonymous": false,
      "inputs": [
        {
          "indexed": false,
          "internalType": "uint256",
          "name": "_votingStartTime",
          "type": "uint256"
        },
        {
          "indexed": false,
          "internalType": "uint256",
          "name": "_votingEndTime",
          "type": "uint256"
        },
        {
          "indexed": false,
          "internalType": "string",
          "name": "message",
          "type": "string"
        }
      ],
      "name": "votingStarted",
      "type": "event"
    },
    {
      "inputs": [
        {
          "internalType": "address",
          "name": "_candidateAddress",
          "type": "address"
        },
        {
          "internalType": "string",
          "name": "_name",
          "type": "string"
        },
        {
          "internalType": "uint256",
          "name": "_age",
          "type": "uint256"
        },
        {
          "internalType": "string",
          "name": "_ipfs",
          "type": "string"
        }
      ],
      "name": "addCandidate",
      "outputs": [],
      "stateMutability": "nonpayable",
      "type": "function"
    },
    {
      "inputs": [
        {
          "internalType": "address",
          "name": "_voterAddress",
          "type": "address"
        },
        {
          "internalType": "string",
          "name": "_name",
          "type": "string"
        },
        {
          "internalType": "uint256",
          "name": "_age",
          "type": "uint256"
        },
        {
          "internalType": "string",
          "name": "_ipfs",
          "type": "string"
        }
      ],
      "name": "addVoter",
      "outputs": [],
      "stateMutability": "nonpayable",
      "type": "function"
    },
    {
      "inputs": [
        {
          "internalType": "uint256",
          "name": "",
          "type": "uint256"
        }
      ],
      "name": "candidateAddress",
      "outputs": [
        {
          "internalType": "address",
          "name": "",
          "type": "address"
        }
      ],
      "stateMutability": "view",
      "type": "function"
    },
    {
      "inputs": [
        {
          "internalType": "address",
          "name": "_candidateAddress",
          "type": "address"
        },
        {
          "internalType": "uint256",
          "name": "_candidateId",
          "type": "uint256"
        }
      ],
      "name": "castVote",
      "outputs": [],
      "stateMutability": "nonpayable",
      "type": "function"
    },
    {
      "inputs": [],
      "name": "getAllCandidates",
      "outputs": [
        {
          "components": [
            {
              "internalType": "uint256",
              "name": "registerId",
              "type": "uint256"
            },
            {
              "internalType": "string",
              "name": "name",
              "type": "string"
            },
            {
              "internalType": "uint256",
              "name": "age",
              "type": "uint256"
            },
            {
              "internalType": "address",
              "name": "candidateAddress",
              "type": "address"
            },
            {
              "internalType": "uint256",
              "name": "voteCount",
              "type": "uint256"
            },
            {
              "internalType": "string",
              "name": "ipfs",
              "type": "string"
            }
          ],
          "internalType": "struct Voting.Candidate[]",
          "name": "",
          "type": "tuple[]"
        }
      ],
      "stateMutability": "view",
      "type": "function"
    },
    {
      "inputs": [],
      "name": "getAllVoters",
      "outputs": [
        {
          "components": [
            {
              "internalType": "uint256",
              "name": "registerId",
              "type": "uint256"
            },
            {
              "internalType": "string",
              "name": "name",
              "type": "string"
            },
            {
              "internalType": "uint256",
              "name": "age",
              "type": "uint256"
            },
            {
              "internalType": "address",
              "name": "voterAddress",
              "type": "address"
            },
            {
              "internalType": "bool",
              "name": "hasVoted",
              "type": "bool"
            },
            {
              "internalType": "string",
              "name": "ipfs",
              "type": "string"
            },
            {
              "internalType": "uint256",
              "name": "votedFor",
              "type": "uint256"
            },
            {
              "internalType": "uint256",
              "name": "voterAllowed",
              "type": "uint256"
            }
          ],
          "internalType": "struct Voting.Voter[]",
          "name": "",
          "type": "tuple[]"
        }
      ],
      "stateMutability": "view",
      "type": "function"
    },
    {
      "inputs": [],
      "name": "getCandidatesLength",
      "outputs": [
        {
          "internalType": "uint256",
          "name": "",
          "type": "uint256"
        }
      ],
      "stateMutability": "view",
      "type": "function"
    },
    {
      "inputs": [],
      "name": "getListOfVotedVoters",
      "outputs": [
        {
          "internalType": "address[]",
          "name": "",
          "type": "address[]"
        }
      ],
      "stateMutability": "view",
      "type": "function"
    },
    {
      "inputs": [],
      "name": "getRemainingVotingTime",
      "outputs": [
        {
          "internalType": "uint256",
          "name": "",
          "type": "uint256"
        }
      ],
      "stateMutability": "view",
      "type": "function"
    },
    {
      "inputs": [
        {
          "internalType": "address",
          "name": "_candidateAddress",
          "type": "address"
        }
      ],
      "name": "getSingleCandidateData",
      "outputs": [
        {
          "internalType": "uint256",
          "name": "",
          "type": "uint256"
        },
        {
          "internalType": "string",
          "name": "",
          "type": "string"
        },
        {
          "internalType": "uint256",
          "name": "",
          "type": "uint256"
        },
        {
          "internalType": "address",
          "name": "",
          "type": "address"
        },
        {
          "internalType": "uint256",
          "name": "",
          "type": "uint256"
        },
        {
          "internalType": "string",
          "name": "",
          "type": "string"
        }
      ],
      "stateMutability": "view",
      "type": "function"
    },
    {
      "inputs": [
        {
          "internalType": "address",
          "name": "_voterAddress",
          "type": "address"
        }
      ],
      "name": "getSingleVoter",
      "outputs": [
        {
          "components": [
            {
              "internalType": "uint256",
              "name": "registerId",
              "type": "uint256"
            },
            {
              "internalType": "string",
              "name": "name",
              "type": "string"
            },
            {
              "internalType": "uint256",
              "name": "age",
              "type": "uint256"
            },
            {
              "internalType": "address",
              "name": "voterAddress",
              "type": "address"
            },
            {
              "internalType": "bool",
              "name": "hasVoted",
              "type": "bool"
            },
            {
              "internalType": "string",
              "name": "ipfs",
              "type": "string"
            },
            {
              "internalType": "uint256",
              "name": "votedFor",
              "type": "uint256"
            },
            {
              "internalType": "uint256",
              "name": "voterAllowed",
              "type": "uint256"
            }
          ],
          "internalType": "struct Voting.Voter",
          "name": "",
          "type": "tuple"
        }
      ],
      "stateMutability": "view",
      "type": "function"
    },
    {
      "inputs": [],
      "name": "getVotersLength",
      "outputs": [
        {
          "internalType": "uint256",
          "name": "",
          "type": "uint256"
        }
      ],
      "stateMutability": "view",
      "type": "function"
    },
    {
      "inputs": [],
      "name": "getWinner",
      "outputs": [
        {
          "components": [
            {
              "internalType": "uint256",
              "name": "registerId",
              "type": "uint256"
            },
            {
              "internalType": "string",
              "name": "name",
              "type": "string"
            },
            {
              "internalType": "uint256",
              "name": "age",
              "type": "uint256"
            },
            {
              "internalType": "address",
              "name": "candidateAddress",
              "type": "address"
            },
            {
              "internalType": "uint256",
              "name": "voteCount",
              "type": "uint256"
            },
            {
              "internalType": "string",
              "name": "ipfs",
              "type": "string"
            }
          ],
          "internalType": "struct Voting.Candidate",
          "name": "",
          "type": "tuple"
        }
      ],
      "stateMutability": "view",
      "type": "function"
    },
    {
      "inputs": [],
      "name": "isVotingStarted",
      "outputs": [
        {
          "internalType": "bool",
          "name": "",
          "type": "bool"
        }
      ],
      "stateMutability": "view",
      "type": "function"
    },
    {
      "inputs": [],
      "name": "owner",
      "outputs": [
        {
          "internalType": "address",
          "name": "",
          "type": "address"
        }
      ],
      "stateMutability": "view",
      "type": "function"
    },
    {
      "inputs": [],
      "name": "resetVotingContract",
      "outputs": [],
      "stateMutability": "nonpayable",
      "type": "function"
    },
    {
      "inputs": [
        {
          "internalType": "uint256",
          "name": "votingDurationInMinutes",
          "type": "uint256"
        }
      ],
      "name": "startVoting",
      "outputs": [],
      "stateMutability": "nonpayable",
      "type": "function"
    },
    {
      "inputs": [],
      "name": "stopVoting",
      "outputs": [],
      "stateMutability": "nonpayable",
      "type": "function"
    },
    {
      "inputs": [
        {
          "internalType": "uint256",
          "name": "",
          "type": "uint256"
        }
      ],
      "name": "votedVoters",
      "outputs": [
        {
          "internalType": "address",
          "name": "",
          "type": "address"
        }
      ],
      "stateMutability": "view",
      "type": "function"
    },
    {
      "inputs": [
        {
          "internalType": "uint256",
          "name": "",
          "type": "uint256"
        }
      ],
      "name": "votersAddress",
      "outputs": [
        {
          "internalType": "address",
          "name": "",
          "type": "address"
        }
      ],
      "stateMutability": "view",
      "type": "function"
    },
    {
      "inputs": [],
      "name": "votingEndTime",
      "outputs": [
        {
          "internalType": "uint256",
          "name": "",
          "type": "uint256"
        }
      ],
      "stateMutability": "view",
      "type": "function"
    },
    {
      "inputs": [],
      "name": "votingStartTime",
      "outputs": [
        {
          "internalType": "uint256",
          "name": "",
          "type": "uint256"
        }
      ],
      "stateMutability": "view",
      "type": "function"
    },
    {
      "inputs": [
        {
          "internalType": "uint256",
          "name": "",
          "type": "uint256"
        }
      ],
      "name": "winnerAddress",
      "outputs": [
        {
          "internalType": "address",
          "name": "",
          "type": "address"
        }
      ],
      "stateMutability": "view",
      "type": "function"
    }
  ],
  "bytecode": "0x60806040523480156200001157600080fd5b50336000806101000a81548173ffffffffffffffffffffffffffffffffffffffff021916908373ffffffffffffffffffffffffffffffffffffffff1602179055506000600360006101000a81548160ff0219169083151502179055506200009760405180606001604052806024815260200162003da2602491396200009d60201b60201c565b62000297565b6200013d81604051602401620000b4919062000244565b6040516020818303038152906040527f41304fac000000000000000000000000000000000000000000000000000000007bffffffffffffffffffffffffffffffffffffffffffffffffffffffff19166020820180517bffffffffffffffffffffffffffffffffffffffffffffffffffffffff83818316178352505050506200014060201b60201c565b50565b6200016681620001616200016960201b6200230a176200018a60201b60201c565b60201c565b50565b60006a636f6e736f6c652e6c6f679050600080835160208501845afa505050565b6200019e60201b620023ac17819050919050565b620001a862000268565b565b600081519050919050565b600082825260208201905092915050565b60005b83811015620001e6578082015181840152602081019050620001c9565b60008484015250505050565b6000601f19601f8301169050919050565b60006200021082620001aa565b6200021c8185620001b5565b93506200022e818560208601620001c6565b6200023981620001f2565b840191505092915050565b6000602082019050818103600083015262000260818462000203565b905092915050565b7f4e487b7100000000000000000000000000000000000000000000000000000000600052605160045260246000fd5b613afb80620002a76000396000f3fe608060405234801561001057600080fd5b506004361061014d5760003560e01c806343242daa116100c3578063aa1d46801161007c578063aa1d46801461037e578063d20b7719146103ae578063da9745ed146103cc578063de2237d314610401578063fab2f86b1461041f578063ff91bb45146104295761014d565b806343242daa146102945780635544c15c146102c4578063577ef5c0146102f45780637831ffb3146103125780638da5cb5b146103425780638e7ea5b2146103605761014d565b80632019a608116101155780632019a608146101d057806325709fa6146101ee5780632e6997fe1461020c57806335bbe70e1461022a5780633a88251a146102485780633d2f5bda146102785761014d565b806302caeb4114610152578063054323d01461016e5780631859df65146101785780631ea736e0146101965780631f2919fe146101b4575b600080fd5b61016c600480360381019061016791906126cb565b610445565b005b610176610738565b005b610180610a43565b60405161018d9190612779565b60405180910390f35b61019e610a50565b6040516101ab9190612779565b60405180910390f35b6101ce60048036038101906101c991906126cb565b610a56565b005b6101d8610d9e565b6040516101e59190612779565b60405180910390f35b6101f6610da4565b60405161020391906127af565b60405180910390f35b610214610db7565b60405161022191906129b9565b60405180910390f35b610232611079565b60405161023f9190612b63565b60405180910390f35b610262600480360381019061025d9190612b85565b611361565b60405161026f9190612bc1565b60405180910390f35b610292600480360381019061028d9190612b85565b6113a0565b005b6102ae60048036038101906102a99190612b85565b611595565b6040516102bb9190612bc1565b60405180910390f35b6102de60048036038101906102d99190612b85565b6115d4565b6040516102eb9190612bc1565b60405180910390f35b6102fc611613565b6040516103099190612779565b60405180910390f35b61032c60048036038101906103279190612b85565b61167b565b6040516103399190612bc1565b60405180910390f35b61034a6116ba565b6040516103579190612bc1565b60405180910390f35b6103686116de565b6040516103759190612c6c565b60405180910390f35b61039860048036038101906103939190612c8e565b611995565b6040516103a59190612d72565b60405180910390f35b6103b6611bac565b6040516103c39190612e43565b60405180910390f35b6103e660048036038101906103e19190612c8e565b611c3a565b6040516103f896959493929190612eaf565b60405180910390f35b610409611f22565b6040516104169190612779565b60405180910390f35b610427611f2f565b005b610443600480360381019061043e9190612f1e565b611fe2565b005b60008054906101000a900473ffffffffffffffffffffffffffffffffffffffff1673ffffffffffffffffffffffffffffffffffffffff163373ffffffffffffffffffffffffffffffffffffffff16146104d3576040517f08c379a00000000000000000000000000000000000000000000000000000000081526004016104ca90612fd0565b60405180910390fd5b61056384600780548060200260200160405190810160405280929190818152602001828054801561055957602002820191906000526020600020905b8160009054906101000a900473ffffffffffffffffffffffffffffffffffffffff1673ffffffffffffffffffffffffffffffffffffffff168152602001906001019080831161050f575b505050505061232b565b156105a3576040517f08c379a000000000000000000000000000000000000000000000000000000000815260040161059a9061303c565b60405180910390fd5b600560008154809291906105b69061308b565b91905055506000600860008673ffffffffffffffffffffffffffffffffffffffff1673ffffffffffffffffffffffffffffffffffffffff16815260200190815260200160002090508381600101908161060f91906132df565b50828160020181905550600554816000018190555060008160040181905550848160030160006101000a81548173ffffffffffffffffffffffffffffffffffffffff021916908373ffffffffffffffffffffffffffffffffffffffff1602179055508181600501908161068291906132df565b506007859080600181540180825580915050600190039060005260206000200160009091909190916101000a81548173ffffffffffffffffffffffffffffffffffffffff021916908373ffffffffffffffffffffffffffffffffffffffff16021790555080600001547ff97de1de7c79ab588b7765336ac90c7d0a82fa75da74538f8b8101f50bc93ee2858588856004015486600501604051610729959493929190613435565b60405180910390a25050505050565b60008054906101000a900473ffffffffffffffffffffffffffffffffffffffff1673ffffffffffffffffffffffffffffffffffffffff163373ffffffffffffffffffffffffffffffffffffffff16146107c6576040517f08c379a00000000000000000000000000000000000000000000000000000000081526004016107bd90612fd0565b60405180910390fd5b60005b6007805490508110156108c25760086000600783815481106107ee576107ed613496565b5b9060005260206000200160009054906101000a900473ffffffffffffffffffffffffffffffffffffffff1673ffffffffffffffffffffffffffffffffffffffff1673ffffffffffffffffffffffffffffffffffffffff16815260200190815260200160002060008082016000905560018201600061086c91906123b6565b60028201600090556003820160006101000a81549073ffffffffffffffffffffffffffffffffffffffff021916905560048201600090556005820160006108b391906123b6565b505080806001019150506107c9565b5060005b6009805490508110156109db57600a6000600983815481106108eb576108ea613496565b5b9060005260206000200160009054906101000a900473ffffffffffffffffffffffffffffffffffffffff1673ffffffffffffffffffffffffffffffffffffffff1673ffffffffffffffffffffffffffffffffffffffff16815260200190815260200160002060008082016000905560018201600061096991906123b6565b60028201600090556003820160006101000a81549073ffffffffffffffffffffffffffffffffffffffff02191690556003820160146101000a81549060ff02191690556004820160006109bc91906123b6565b60058201600090556006820160009055505080806001019150506108c6565b50600760006109ea91906123f6565b600960006109f891906123f6565b600b6000610a0691906123f6565b600060048190555060006005819055506000600360006101000a81548160ff02191690831515021790555060006001819055506000600281905550565b6000600780549050905090565b60025481565b60008054906101000a900473ffffffffffffffffffffffffffffffffffffffff1673ffffffffffffffffffffffffffffffffffffffff163373ffffffffffffffffffffffffffffffffffffffff1614610ae4576040517f08c379a0000000000000000000000000000000000000000000000000000000008152600401610adb90612fd0565b60405180910390fd5b610b74846009805480602002602001604051908101604052809291908181526020018280548015610b6a57602002820191906000526020600020905b8160009054906101000a900473ffffffffffffffffffffffffffffffffffffffff1673ffffffffffffffffffffffffffffffffffffffff1681526020019060010190808311610b20575b505050505061232b565b15610bb4576040517f08c379a0000000000000000000000000000000000000000000000000000000008152600401610bab90613511565b60405180910390fd5b60046000815480929190610bc79061308b565b91905055506000600a60008673ffffffffffffffffffffffffffffffffffffffff1673ffffffffffffffffffffffffffffffffffffffff16815260200190815260200160002090506001816006018190555060008160030160146101000a81548160ff02191690831515021790555083816001019081610c4791906132df565b50828160020181905550848160030160006101000a81548173ffffffffffffffffffffffffffffffffffffffff021916908373ffffffffffffffffffffffffffffffffffffffff160217905550600454816000018190555081816004019081610cb091906132df565b506009859080600181540180825580915050600190039060005260206000200160009091909190916101000a81548173ffffffffffffffffffffffffffffffffffffffff021916908373ffffffffffffffffffffffffffffffffffffffff16021790555080600001547f712ee0287ff5040fd1902b718d223d698196825f1debaefa1d5ffa204dc663908260010183600201548460030160009054906101000a900473ffffffffffffffffffffffffffffffffffffffff168560030160149054906101000a900460ff1686600401604051610d8f959493929190613531565b60405180910390a25050505050565b60015481565b600360009054906101000a900460ff1681565b6060600060078054905067ffffffffffffffff811115610dda57610dd961256a565b5b604051908082528060200260200182016040528015610e1357816020015b610e00612417565b815260200190600190039081610df85790505b50905060005b600780549050811015611071576008600060078381548110610e3e57610e3d613496565b5b9060005260206000200160009054906101000a900473ffffffffffffffffffffffffffffffffffffffff1673ffffffffffffffffffffffffffffffffffffffff1673ffffffffffffffffffffffffffffffffffffffff1681526020019081526020016000206040518060c001604052908160008201548152602001600182018054610ec890613102565b80601f0160208091040260200160405190810160405280929190818152602001828054610ef490613102565b8015610f415780601f10610f1657610100808354040283529160200191610f41565b820191906000526020600020905b815481529060010190602001808311610f2457829003601f168201915b50505050508152602001600282015481526020016003820160009054906101000a900473ffffffffffffffffffffffffffffffffffffffff1673ffffffffffffffffffffffffffffffffffffffff1673ffffffffffffffffffffffffffffffffffffffff16815260200160048201548152602001600582018054610fc490613102565b80601f0160208091040260200160405190810160405280929190818152602001828054610ff090613102565b801561103d5780601f106110125761010080835404028352916020019161103d565b820191906000526020600020905b81548152906001019060200180831161102057829003601f168201915b50505050508152505082828151811061105957611058613496565b5b60200260200101819052508080600101915050610e19565b508091505090565b6060600060098054905067ffffffffffffffff81111561109c5761109b61256a565b5b6040519080825280602002602001820160405280156110d557816020015b6110c2612463565b8152602001906001900390816110ba5790505b50905060005b60098054905081101561135957600a600060098381548110611100576110ff613496565b5b9060005260206000200160009054906101000a900473ffffffffffffffffffffffffffffffffffffffff1673ffffffffffffffffffffffffffffffffffffffff1673ffffffffffffffffffffffffffffffffffffffff168152602001908152602001600020604051806101000160405290816000820154815260200160018201805461118b90613102565b80601f01602080910402602001604051908101604052809291908181526020018280546111b790613102565b80156112045780601f106111d957610100808354040283529160200191611204565b820191906000526020600020905b8154815290600101906020018083116111e757829003601f168201915b50505050508152602001600282015481526020016003820160009054906101000a900473ffffffffffffffffffffffffffffffffffffffff1673ffffffffffffffffffffffffffffffffffffffff1673ffffffffffffffffffffffffffffffffffffffff1681526020016003820160149054906101000a900460ff1615151515815260200160048201805461129890613102565b80601f01602080910402602001604051908101604052809291908181526020018280546112c490613102565b80156113115780601f106112e657610100808354040283529160200191611311565b820191906000526020600020905b8154815290600101906020018083116112f457829003601f168201915b505050505081526020016005820154815260200160068201548152505082828151811061134157611340613496565b5b602002602001018190525080806001019150506110db565b508091505090565b6007818154811061137157600080fd5b906000526020600020016000915054906101000a900473ffffffffffffffffffffffffffffffffffffffff1681565b60008054906101000a900473ffffffffffffffffffffffffffffffffffffffff1673ffffffffffffffffffffffffffffffffffffffff163373ffffffffffffffffffffffffffffffffffffffff161461142e576040517f08c379a000000000000000000000000000000000000000000000000000000000815260040161142590612fd0565b60405180910390fd5b60001515600360009054906101000a900460ff16151514611484576040517f08c379a000000000000000000000000000000000000000000000000000000000815260040161147b906135de565b60405180910390fd5b600260078054905010156114cd576040517f08c379a00000000000000000000000000000000000000000000000000000000081526004016114c490613670565b60405180910390fd5b600060098054905011611515576040517f08c379a000000000000000000000000000000000000000000000000000000000815260040161150c906136dc565b60405180910390fd5b6001600360006101000a81548160ff02191690831515021790555042600181905550603c8161154491906136fc565b4261154f919061373e565b6002819055507ff26ffbf8954319b8e40baf7708ea9d4188186297967babafc3c47b524710af9960015460025460405161158a9291906137be565b60405180910390a150565b600981815481106115a557600080fd5b906000526020600020016000915054906101000a900473ffffffffffffffffffffffffffffffffffffffff1681565b600681815481106115e457600080fd5b906000526020600020016000915054906101000a900473ffffffffffffffffffffffffffffffffffffffff1681565b6000600154421015801561162957506002544211155b611668576040517f08c379a000000000000000000000000000000000000000000000000000000000815260040161165f90613846565b60405180910390fd5b426002546116769190613866565b905090565b600b818154811061168b57600080fd5b906000526020600020016000915054906101000a900473ffffffffffffffffffffffffffffffffffffffff1681565b60008054906101000a900473ffffffffffffffffffffffffffffffffffffffff1681565b6116e6612417565b600254421161172a576040517f08c379a00000000000000000000000000000000000000000000000000000000081526004016117219061390c565b60405180910390fd5b611732612417565b6000805b60078054905081101561198c576000600860006007848154811061175d5761175c613496565b5b9060005260206000200160009054906101000a900473ffffffffffffffffffffffffffffffffffffffff1673ffffffffffffffffffffffffffffffffffffffff1673ffffffffffffffffffffffffffffffffffffffff1681526020019081526020016000206040518060c0016040529081600082015481526020016001820180546117e790613102565b80601f016020809104026020016040519081016040528092919081815260200182805461181390613102565b80156118605780601f1061183557610100808354040283529160200191611860565b820191906000526020600020905b81548152906001019060200180831161184357829003601f168201915b50505050508152602001600282015481526020016003820160009054906101000a900473ffffffffffffffffffffffffffffffffffffffff1673ffffffffffffffffffffffffffffffffffffffff1673ffffffffffffffffffffffffffffffffffffffff168152602001600482015481526020016005820180546118e390613102565b80601f016020809104026020016040519081016040528092919081815260200182805461190f90613102565b801561195c5780601f106119315761010080835404028352916020019161195c565b820191906000526020600020905b81548152906001019060200180831161193f57829003601f168201915b5050505050815250509050828160800151111561197e57806080015192508093505b508080600101915050611736565b50819250505090565b61199d612463565b600a60008373ffffffffffffffffffffffffffffffffffffffff1673ffffffffffffffffffffffffffffffffffffffff1681526020019081526020016000206040518061010001604052908160008201548152602001600182018054611a0290613102565b80601f0160208091040260200160405190810160405280929190818152602001828054611a2e90613102565b8015611a7b5780601f10611a5057610100808354040283529160200191611a7b565b820191906000526020600020905b815481529060010190602001808311611a5e57829003601f168201915b50505050508152602001600282015481526020016003820160009054906101000a900473ffffffffffffffffffffffffffffffffffffffff1673ffffffffffffffffffffffffffffffffffffffff1673ffffffffffffffffffffffffffffffffffffffff1681526020016003820160149054906101000a900460ff16151515158152602001600482018054611b0f90613102565b80601f0160208091040260200160405190810160405280929190818152602001828054611b3b90613102565b8015611b885780601f10611b5d57610100808354040283529160200191611b88565b820191906000526020600020905b815481529060010190602001808311611b6b57829003601f168201915b50505050508152602001600582015481526020016006820154815250509050919050565b6060600b805480602002602001604051908101604052809291908181526020018280548015611c3057602002820191906000526020600020905b8160009054906101000a900473ffffffffffffffffffffffffffffffffffffffff1673ffffffffffffffffffffffffffffffffffffffff1681526020019060010190808311611be6575b5050505050905090565b6000606060008060006060600860008873ffffffffffffffffffffffffffffffffffffffff1673ffffffffffffffffffffffffffffffffffffffff16815260200190815260200160002060000154600860008973ffffffffffffffffffffffffffffffffffffffff1673ffffffffffffffffffffffffffffffffffffffff168152602001908152602001600020600101600860008a73ffffffffffffffffffffffffffffffffffffffff1673ffffffffffffffffffffffffffffffffffffffff16815260200190815260200160002060020154600860008b73ffffffffffffffffffffffffffffffffffffffff1673ffffffffffffffffffffffffffffffffffffffff16815260200190815260200160002060030160009054906101000a900473ffffffffffffffffffffffffffffffffffffffff16600860008c73ffffffffffffffffffffffffffffffffffffffff1673ffffffffffffffffffffffffffffffffffffffff16815260200190815260200160002060040154600860008d73ffffffffffffffffffffffffffffffffffffffff1673ffffffffffffffffffffffffffffffffffffffff168152602001908152602001600020600501848054611e0190613102565b80601f0160208091040260200160405190810160405280929190818152602001828054611e2d90613102565b8015611e7a5780601f10611e4f57610100808354040283529160200191611e7a565b820191906000526020600020905b815481529060010190602001808311611e5d57829003601f168201915b50505050509450808054611e8d90613102565b80601f0160208091040260200160405190810160405280929190818152602001828054611eb990613102565b8015611f065780601f10611edb57610100808354040283529160200191611f06565b820191906000526020600020905b815481529060010190602001808311611ee957829003601f168201915b5050505050905095509550955095509550955091939550919395565b6000600980549050905090565b60008054906101000a900473ffffffffffffffffffffffffffffffffffffffff1673ffffffffffffffffffffffffffffffffffffffff163373ffffffffffffffffffffffffffffffffffffffff1614611fbd576040517f08c379a0000000000000000000000000000000000000000000000000000000008152600401611fb490612fd0565b60405180910390fd5b6000600360006101000a81548160ff0219169083151502179055506000600281905550565b6001544210158015611ff657506002544211155b612035576040517f08c379a000000000000000000000000000000000000000000000000000000000815260040161202c90613846565b60405180910390fd5b6120c58260078054806020026020016040519081016040528092919081815260200182805480156120bb57602002820191906000526020600020905b8160009054906101000a900473ffffffffffffffffffffffffffffffffffffffff1673ffffffffffffffffffffffffffffffffffffffff1681526020019060010190808311612071575b505050505061232b565b612104576040517f08c379a00000000000000000000000000000000000000000000000000000000081526004016120fb9061399e565b60405180910390fd5b6000600a60003373ffffffffffffffffffffffffffffffffffffffff1673ffffffffffffffffffffffffffffffffffffffff16815260200190815260200160002090508060030160149054906101000a900460ff1615612199576040517f08c379a000000000000000000000000000000000000000000000000000000000815260040161219090613a0a565b60405180910390fd5b60008160060154036121e0576040517f08c379a00000000000000000000000000000000000000000000000000000000081526004016121d790613a76565b60405180910390fd5b60018160030160146101000a81548160ff021916908315150217905550818160050181905550600b339080600181540180825580915050600190039060005260206000200160009091909190916101000a81548173ffffffffffffffffffffffffffffffffffffffff021916908373ffffffffffffffffffffffffffffffffffffffff160217905550600860008473ffffffffffffffffffffffffffffffffffffffff1673ffffffffffffffffffffffffffffffffffffffff16815260200190815260200160002060040160008154809291906122bc9061308b565b9190505550813373ffffffffffffffffffffffffffffffffffffffff167f906663c782b729d157b52ef6ec5eb35d71e674f813a7841b46e1415e7a9b48c760405160405180910390a3505050565b60006a636f6e736f6c652e6c6f679050600080835160208501845afa505050565b600080600090505b82518110156123a0578373ffffffffffffffffffffffffffffffffffffffff1683828151811061236657612365613496565b5b602002602001015173ffffffffffffffffffffffffffffffffffffffff16036123935760019150506123a6565b8080600101915050612333565b50600090505b92915050565b6123b4613a96565b565b5080546123c290613102565b6000825580601f106123d457506123f3565b601f0160209004906000526020600020908101906123f291906124c0565b5b50565b508054600082559060005260206000209081019061241491906124c0565b50565b6040518060c00160405280600081526020016060815260200160008152602001600073ffffffffffffffffffffffffffffffffffffffff16815260200160008152602001606081525090565b604051806101000160405280600081526020016060815260200160008152602001600073ffffffffffffffffffffffffffffffffffffffff1681526020016000151581526020016060815260200160008152602001600081525090565b5b808211156124d95760008160009055506001016124c1565b5090565b6000604051905090565b600080fd5b600080fd5b600073ffffffffffffffffffffffffffffffffffffffff82169050919050565b600061251c826124f1565b9050919050565b61252c81612511565b811461253757600080fd5b50565b60008135905061254981612523565b92915050565b600080fd5b600080fd5b6000601f19601f8301169050919050565b7f4e487b7100000000000000000000000000000000000000000000000000000000600052604160045260246000fd5b6125a282612559565b810181811067ffffffffffffffff821117156125c1576125c061256a565b5b80604052505050565b60006125d46124dd565b90506125e08282612599565b919050565b600067ffffffffffffffff821115612600576125ff61256a565b5b61260982612559565b9050602081019050919050565b82818337600083830152505050565b6000612638612633846125e5565b6125ca565b90508281526020810184848401111561265457612653612554565b5b61265f848285612616565b509392505050565b600082601f83011261267c5761267b61254f565b5b813561268c848260208601612625565b91505092915050565b6000819050919050565b6126a881612695565b81146126b357600080fd5b50565b6000813590506126c58161269f565b92915050565b600080600080608085870312156126e5576126e46124e7565b5b60006126f38782880161253a565b945050602085013567ffffffffffffffff811115612714576127136124ec565b5b61272087828801612667565b9350506040612731878288016126b6565b925050606085013567ffffffffffffffff811115612752576127516124ec565b5b61275e87828801612667565b91505092959194509250565b61277381612695565b82525050565b600060208201905061278e600083018461276a565b92915050565b60008115159050919050565b6127a981612794565b82525050565b60006020820190506127c460008301846127a0565b92915050565b600081519050919050565b600082825260208201905092915050565b6000819050602082019050919050565b6127ff81612695565b82525050565b600081519050919050565b600082825260208201905092915050565b60005b8381101561283f578082015181840152602081019050612824565b60008484015250505050565b600061285682612805565b6128608185612810565b9350612870818560208601612821565b61287981612559565b840191505092915050565b61288d81612511565b82525050565b600060c0830160008301516128ab60008601826127f6565b50602083015184820360208601526128c3828261284b565b91505060408301516128d860408601826127f6565b5060608301516128eb6060860182612884565b5060808301516128fe60808601826127f6565b5060a083015184820360a0860152612916828261284b565b9150508091505092915050565b600061292f8383612893565b905092915050565b6000602082019050919050565b600061294f826127ca565b61295981856127d5565b93508360208202850161296b856127e6565b8060005b858110156129a757848403895281516129888582612923565b945061299383612937565b925060208a0199505060018101905061296f565b50829750879550505050505092915050565b600060208201905081810360008301526129d38184612944565b905092915050565b600081519050919050565b600082825260208201905092915050565b6000819050602082019050919050565b612a1081612794565b82525050565b600061010083016000830151612a2f60008601826127f6565b5060208301518482036020860152612a47828261284b565b9150506040830151612a5c60408601826127f6565b506060830151612a6f6060860182612884565b506080830151612a826080860182612a07565b5060a083015184820360a0860152612a9a828261284b565b91505060c0830151612aaf60c08601826127f6565b5060e0830151612ac260e08601826127f6565b508091505092915050565b6000612ad98383612a16565b905092915050565b6000602082019050919050565b6000612af9826129db565b612b0381856129e6565b935083602082028501612b15856129f7565b8060005b85811015612b515784840389528151612b328582612acd565b9450612b3d83612ae1565b925060208a01995050600181019050612b19565b50829750879550505050505092915050565b60006020820190508181036000830152612b7d8184612aee565b905092915050565b600060208284031215612b9b57612b9a6124e7565b5b6000612ba9848285016126b6565b91505092915050565b612bbb81612511565b82525050565b6000602082019050612bd66000830184612bb2565b92915050565b600060c083016000830151612bf460008601826127f6565b5060208301518482036020860152612c0c828261284b565b9150506040830151612c2160408601826127f6565b506060830151612c346060860182612884565b506080830151612c4760808601826127f6565b5060a083015184820360a0860152612c5f828261284b565b9150508091505092915050565b60006020820190508181036000830152612c868184612bdc565b905092915050565b600060208284031215612ca457612ca36124e7565b5b6000612cb28482850161253a565b91505092915050565b600061010083016000830151612cd460008601826127f6565b5060208301518482036020860152612cec828261284b565b9150506040830151612d0160408601826127f6565b506060830151612d146060860182612884565b506080830151612d276080860182612a07565b5060a083015184820360a0860152612d3f828261284b565b91505060c0830151612d5460c08601826127f6565b5060e0830151612d6760e08601826127f6565b508091505092915050565b60006020820190508181036000830152612d8c8184612cbb565b905092915050565b600081519050919050565b600082825260208201905092915050565b6000819050602082019050919050565b6000612dcc8383612884565b60208301905092915050565b6000602082019050919050565b6000612df082612d94565b612dfa8185612d9f565b9350612e0583612db0565b8060005b83811015612e36578151612e1d8882612dc0565b9750612e2883612dd8565b925050600181019050612e09565b5085935050505092915050565b60006020820190508181036000830152612e5d8184612de5565b905092915050565b600082825260208201905092915050565b6000612e8182612805565b612e8b8185612e65565b9350612e9b818560208601612821565b612ea481612559565b840191505092915050565b600060c082019050612ec4600083018961276a565b8181036020830152612ed68188612e76565b9050612ee5604083018761276a565b612ef26060830186612bb2565b612eff608083018561276a565b81810360a0830152612f118184612e76565b9050979650505050505050565b60008060408385031215612f3557612f346124e7565b5b6000612f438582860161253a565b9250506020612f54858286016126b6565b9150509250929050565b7f4f6e6c79204f776e65722f41646d696e2063616e2063616c6c2074686973206660008201527f756e6374696f6e00000000000000000000000000000000000000000000000000602082015250565b6000612fba602783612e65565b9150612fc582612f5e565b604082019050919050565b60006020820190508181036000830152612fe981612fad565b9050919050565b7f43616e64696461746520697320416c7265616479205265676973746572656400600082015250565b6000613026601f83612e65565b915061303182612ff0565b602082019050919050565b6000602082019050818103600083015261305581613019565b9050919050565b7f4e487b7100000000000000000000000000000000000000000000000000000000600052601160045260246000fd5b600061309682612695565b91507fffffffffffffffffffffffffffffffffffffffffffffffffffffffffffffffff82036130c8576130c761305c565b5b600182019050919050565b7f4e487b7100000000000000000000000000000000000000000000000000000000600052602260045260246000fd5b6000600282049050600182168061311a57607f821691505b60208210810361312d5761312c6130d3565b5b50919050565b60008190508160005260206000209050919050565b60006020601f8301049050919050565b600082821b905092915050565b6000600883026131957fffffffffffffffffffffffffffffffffffffffffffffffffffffffffffffffff82613158565b61319f8683613158565b95508019841693508086168417925050509392505050565b6000819050919050565b60006131dc6131d76131d284612695565b6131b7565b612695565b9050919050565b6000819050919050565b6131f6836131c1565b61320a613202826131e3565b848454613165565b825550505050565b600090565b61321f613212565b61322a8184846131ed565b505050565b5b8181101561324e57613243600082613217565b600181019050613230565b5050565b601f8211156132935761326481613133565b61326d84613148565b8101602085101561327c578190505b61329061328885613148565b83018261322f565b50505b505050565b600082821c905092915050565b60006132b660001984600802613298565b1980831691505092915050565b60006132cf83836132a5565b9150826002028217905092915050565b6132e882612805565b67ffffffffffffffff8111156133015761330061256a565b5b61330b8254613102565b613316828285613252565b600060209050601f8311600181146133495760008415613337578287015190505b61334185826132c3565b8655506133a9565b601f19841661335786613133565b60005b8281101561337f5784890151825560018201915060208501945060208101905061335a565b8683101561339c5784890151613398601f8916826132a5565b8355505b6001600288020188555050505b505050505050565b600081546133be81613102565b6133c88186612e65565b945060018216600081146133e357600181146133f95761342c565b60ff19831686528115156020028601935061342c565b61340285613133565b60005b8381101561342457815481890152600182019150602081019050613405565b808801955050505b50505092915050565b600060a082019050818103600083015261344f8188612e76565b905061345e602083018761276a565b61346b6040830186612bb2565b613478606083018561276a565b818103608083015261348a81846133b1565b90509695505050505050565b7f4e487b7100000000000000000000000000000000000000000000000000000000600052603260045260246000fd5b7f566f74657220697320416c726561647920526567697374657265640000000000600082015250565b60006134fb601b83612e65565b9150613506826134c5565b602082019050919050565b6000602082019050818103600083015261352a816134ee565b9050919050565b600060a082019050818103600083015261354b81886133b1565b905061355a602083018761276a565b6135676040830186612bb2565b61357460608301856127a0565b818103608083015261358681846133b1565b90509695505050505050565b7f566f74696e6720697320616c7265616479205374617274656400000000000000600082015250565b60006135c8601983612e65565b91506135d382613592565b602082019050919050565b600060208201905081810360008301526135f7816135bb565b9050919050565b7f52656769737465722043616e646964617465732053686f756c64206265206d6f60008201527f7265207468616e204f6e65000000000000000000000000000000000000000000602082015250565b600061365a602b83612e65565b9150613665826135fe565b604082019050919050565b600060208201905081810360008301526136898161364d565b9050919050565b7f5468657265206973206e6f20766f74657220696e207468652073797374656d00600082015250565b60006136c6601f83612e65565b91506136d182613690565b602082019050919050565b600060208201905081810360008301526136f5816136b9565b9050919050565b600061370782612695565b915061371283612695565b925082820261372081612695565b915082820484148315176137375761373661305c565b5b5092915050565b600061374982612695565b915061375483612695565b925082820190508082111561376c5761376b61305c565b5b92915050565b7f566f74696e672068617320737563657366756c6c792073746172746564000000600082015250565b60006137a8601d83612e65565b91506137b382613772565b602082019050919050565b60006060820190506137d3600083018561276a565b6137e0602083018461276a565b81810360408301526137f18161379b565b90509392505050565b7f766f74696e67206973206e6f7420616374697665000000000000000000000000600082015250565b6000613830601483612e65565b915061383b826137fa565b602082019050919050565b6000602082019050818103600083015261385f81613823565b9050919050565b600061387182612695565b915061387c83612695565b92508282039050818111156138945761389361305c565b5b92915050565b7f566f74696e6720697320696e2070726f67726573732c20506c6561736520776160008201527f697420746f20626520636f6d706c657465640000000000000000000000000000602082015250565b60006138f6603283612e65565b91506139018261389a565b604082019050919050565b60006020820190508181036000830152613925816138e9565b9050919050565b7f73656c65637465642043616e646964617465206973206e6f7420417574686f7260008201527f61697a656420746f20566f746520000000000000000000000000000000000000602082015250565b6000613988602e83612e65565b91506139938261392c565b604082019050919050565b600060208201905081810360008301526139b78161397b565b9050919050565b7f596f75206861766520616c726561647920766f74656400000000000000000000600082015250565b60006139f4601683612e65565b91506139ff826139be565b602082019050919050565b60006020820190508181036000830152613a23816139e7565b9050919050565b7f596f752068617665206e6f20726967687420746f20766f746500000000000000600082015250565b6000613a60601983612e65565b9150613a6b82613a2a565b602082019050919050565b60006020820190508181036000830152613a8f81613a53565b9050919050565b7f4e487b7100000000000000000000000000000000000000000000000000000000600052605160045260246000fdfea2646970667358221220c8b9a8dcbca1e7068ca69c3cebeb5db85051708a32debe3298015657daa0ce3564736f6c6343000818003354686520436f6e74726163742069732073756363657366756c6c79206465706c6f796564",
  "linkReferences": {},
  "deployedLinkReferences": {}
}